S01400004D5050545F5043425F4D43552E7372656357
S113000024C1000041C100003FC100003DC1000007
S11300103BC1000039C1000037C1000035C10000F8
S113002033C1000031C100002FC100002DC1000008
S11300302BC100000C94353327C1000025C10000FA
S113004023C1000021C100001FC100001DC1000028
S11300500C94993219C100000C94FD3215C10000B2
S113006013C1000011C100000FC100000DC1000048
S11300700BC1000009C1000007C1000005C1000058
S113008003C1000001C10000FFC00000080000001F
S1130090BE922449123EABAAAA2ABECDCCCC4C3E79
S11300A000000080BEABAAAAAA3E00000000BF0068
S11300B00000803F0000000000084178D3BB438764
S11300C0D1133D190E3CC3BD4282AD2B3E68EC8278
S11300D076BED98FE1A93E4C80EFFFBE01C4FF7FFD
S11300E03F000000000005A84CCDB2D44EB938360C
S11300F0A9020C50B9918688083CA6AAAA2ABE0077
S11301000000803F696E6600494E46006E616E00D5
S11301104E414E0000407A10F35A00A0724E180966
S11301200010A5D4E80000E87648170000E40B545A
S1130130020000CA9A3B000000E1F5050000809629
S11301409800000040420F000000A086010000005B
S1130150102700000000E803000000006400000015
S113016000000A00000000000100000000002C76DE
S1130170D888DC674F0823DFC1DFAE59E1B1B796F9
S1130180E5E3E453C63AE651997696E8E6C2842656
S1130190EB898C9B62ED407C6FFCEFBC9C9F40F232
S11301A0BAA56FA5F490055A2AF75C936B6CF967AE
S11301B06DC11BFCE0E40D47FEF520E6B500D0ED73
S11301C0902E0300943577050080841E08000020DB
S11301D04E0A000000C80C333333330F986E128379
S11301E01141EF8D2114893BE65516CFFEE6DB184D
S11301F0D1844B381BF77C1D901DA4BBE424203212
S113020084725E228100C9F124ECA1E53D274E41B0
S11302104E494E495459494E46CDCCCC3D0AD7237C
S11302203C17B7D13877CC2B329595E6241FB14FC4
S11302300A000020410000C84200401C4620BCBE09
S11302404CCA1B0E5AAEC59D740011241FBECFEFBD
S1130250D0E4DEBFCDBF12E0A0E0B1E0EEE3F7E909
S113026000E00BBF02C007900D92A03AB107D9F786
S113027025E1A0EAB2E001C01D92A838B207E1F777
S11302800E94D6300C949D4BBBCECF93DF938091CC
S1130290E21480FD0AC09091B4028091DB148917A6
S11302A020F48091B4020E94283F809138159091E7
S11302B03915A0913A15B0913B158093B3149093DE
S11302C0B414A093B514B093B6146091B3147091A0
S11302D0B4148091B5149091B6140E94A32D80910A
S11302E0B5029091B602A895009749F0EFE9FFE0B6
S11302F03197F1F700C00000A8950197F5CFC6E04B
S1130300C15019F10E948E2C8091E21480FD1DC011
S1130310D091DB14109226151092251510925115C8
S11303200E9433418091DB14D81305C08091DB1403
S11303308093B4020AC0FFEF20E782E0F15020402E
S11303408040E1F700C00000DBCF60918D10709118
S11303508E1080918F1090919010DF91CF9108951D
S1130360CF93DF938091E21481FD0AC090919E0A9D
S113037080915215891720F480919E0A0E9426408C
S11303801092B3141092B4141092B5141092B614BF
S11303906091B3147091B4148091B5149091B61413
S11303A00E94A32D8091B5029091B602A895009762
S11303B049F0EFE9FFE03197F1F700C00000A8959C
S11303C00197F5CF00990BC00E94DA3CFFEF20E7BC
S11303D082E0F15020408040E1F700C00000C7E017
S11303E0C15019F10E940D2D8091E21481FD1DC0B0
S11303F0D09152151092E1141092E01410925315FA
S11304000E94794180915215D81305C080915215EC
S113041080939E0A0AC09FEFE0E7F2E09150E0402B
S1130420F040E1F700C00000DBCFDF91CF910895E9
S11304302F923F924F925F926F927F928F929F92F0
S1130440AF92BF92CF92DF92EF92FF920F931F93DE
S1130450CF93DF9300D01F92CDB7DEB72DB73EB751
S11304603B832A838091AD06EDB7FEB722E0829FDD
S1130470E019F10911240FB6F894FEBF0FBEEDBFC9
S11304808DB79EB701967C01D090DB14C0905215B5
S113049040908D1450908E1460908F14709090142E
S11304A08091AE029091AF0280329E4418F080E6B3
S11304B09AEE0AC08091AE029091AF029C01220F85
S11304C0331F820F931FC2969093B6028093B50296
S11304D06091B8027091B9028091BA029091BB0206
S11304E02091BD023091BE024091BF025091C002E2
S11304F00E94FD44181684F08091BD029091BE02C2
S1130500A091BF02B091C0028093B8029093B90247
S1130510A093BA02B093BB026091B8027091B90281
S11305208091BA029091BB022091BD023091BE022B
S11305304091BF025091C0028090AA029090AB02F9
S1130540A090AC02B090AD020E949844A501940121
S11305500E9401450E94F8460E946E456983372E29
S11305608091E21480FD2DC010922615109225155D
S113057060914C1470914D1480914E1490914F14CD
S11305802091AE063091AF064091B0065091B1066D
S11305900E944C4618164CF460914C1470914D1402
S11305A080914E1490914F1408C06091AE067091E2
S11305B0AF068091B0069091B1060E94F43B0E9470
S11305C0283F8091E21481FFCBDE60914C1470913E
S11305D04D1480914E1490914F140E94A32D1398A2
S11305E0129811988091B5029091B602A89500973F
S11305F049F0EFE9FFE03197F1F700C00000A8955A
S11306000197F5CF2090AD066091AE067091AF06CC
S11306108091B0069091B1060E94A32D57018701E5
S1130620222071F00E943B29F801819391938F015C
S11306302A948981932D009799F301970000FBCFA9
S11306402090AD062220D1F02A94022D10E0F8016A
S1130650EE0FFF1FEE0DFF1D6081718180E090E0C1
S11306600E949A45000F111F000F111FF801ED554C
S1130670F54F6083718382839383E4CF60914C143C
S113068070914D1480914E1490914F140E94A32D9B
S1130690139A129811988091B5029091B602A89578
S11306A0009749F0EFE9FFE03197F1F700C000004F
S11306B0A8950197F5CF1091AD066091AE067091A3
S11306C0AF068091B0069091B1060E94A32D11232C
S11306D071F00E943B29F501819391935F011150C0
S11306E08981932D009799F301970000FBCFB09077
S11306F0AD06BB20D1F0BA940B2D10E0F801EE0F3B
S1130700FF1FEE0DFF1D6081718180E090E00E946B
S11307109A45000F111F000F111FF801EE54F94FF5
S11307206083718382839383E4CF80911D148B7FD4
S113073080931D1480911C14826080931C1460911A
S11307408D1470918E1480918F14909190140E9446
S1130750A32D80915215C81639F01092E11410920D
S1130760E0148C2D0E9426408091DB14D81639F0B9
S113077010922615109225158D2D0E94283FC30135
S1130780B2010E94A32D1398129811988091B5027A
S11307909091B602A895009749F0EFE9FFE03197F0
S11307A0F1F700C00000A8950197F5CF80911C14C3
S11307B08E7F80931C14809127148E7F809327143E
S11307C02A813B810FB6F8943EBF0FBE2DBF0F9018
S11307D00F900F90DF91CF911F910F91FF90EF90A9
S11307E0DF90CF90BF90AF909F908F907F906F904D
S11307F05F904F903F902F9008954F925F926F9229
S11308007F928F929F92AF92BF92CF92DF92EF929C
S1130810FF92CF93DF93CDB7DEB72C970FB6F89442
S1130820DEBF0FBECDBF69877A878B879C8729017E
S11308303A018091B7028983812C912C5401C12CF7
S1130840D12C7601A981AA2309F44AC013981298DD
S11308501198AFE8B1E01197F1F700C00000809162
S1130860A80290E00E947E29C60ED71EE81EF91E3B
S11308708091F913882321F08091A902806207C036
S113088080918810882329F08091A9028061809347
S1130890A902139A129811988FE891E00197F1F741
S11308A000C000008091A80290E00E947E29860E7C
S11308B0971EA81EB91E8091F913882321F08091F8
S11308C0A902806807C080918810882329F080914C
S11308D0A90280648093A902998191509983B2CF2F
S11308E08091BC0281FF23C01398129811988FE85D
S11308F091E00197F1F700C000008091A80290E018
S11309000E947E29C60ED71EE81EF91E8091F91397
S1130910882321F08091E214806207C080918810BE
S1130920882329F08091E21480618093E2148091FD
S11309305A1590915B15A0915C15B0915D15898352
S11309409A83AB83BC838091091590910A15A09179
S11309500B15B0910C158D839E83AF83B887C701A7
S1130960B6010E949A4529853A854B855C850E948B
S1130970954629813A814B815C810E9499442D815D
S11309803E814F8158850E94954660938D107093E7
S11309908E1080938F1090939010C090D614D090A6
S11309A0D714E090D814F090D9148091D214909177
S11309B0D314A091D414B091D51489839A83AB83B2
S11309C0BC83C501B4010E949A45A30192010E940F
S11309D09546A70196010E94994429813A814B8149
S11309E05C810E94954660934412709345128093F3
S11309F046129093471260918D1070918E108091E1
S1130A008F10909190102091FE143091FF1440911A
S1130A10001550910115C0904412D0904512E090F9
S1130A204612F09047120E949546A70196010E9433
S1130A30994460933F1270934012809341129093B3
S1130A4042122C960FB6F894DEBF0FBECDBFDF91D5
S1130A50CF91FF90EF90DF90CF90BF90AF909F9099
S1130A608F907F906F905F904F9008955F926F92F8
S1130A707F928F929F92AF92BF92CF92DF92EF922A
S1130A80FF920F931F93CF93DF93C091AD06D0E0F5
S1130A9010E000E0912CC12CD12C7601CC2381F103
S1130AA0C15084E0C89F90011124F901ED55F54F20
S1130AB05F016081718182819381F901EE54F94F64
S1130AC020813181428153810E949546562E672EA2
S1130AD0782E892E262F372F482F592F6D2F712FBF
S1130AE0802F992D0E94FD4487FFD8CFF501C08047
S1130AF0D180E280F380D52D162D072D982CCECFF2
S1130B00C701B601DF91CF911F910F91FF90EF9034
S1130B10DF90CF90BF90AF909F908F907F906F9019
S1130B205F900895CF92DF92EF92FF92139A1298FA
S1130B30119A8FE891E00197F1F700C0000084E179
S1130B4090E00E944F29139A129A119A0E949A4592
S1130B502DEC3CEC4CE45DE30E94954620910F148F
S1130B603091101440911114509112140E94954622
S1130B706B017C019B01AC0160E070E080E897E4CC
S1130B800E9498449B01AC01C701B6010E94014533
S1130B9020910214309103144091041450910514CF
S1130BA0C0908410D0908510E0908610F09087104B
S1130BB00E949546A70196010E9495460E945546BB
S1130BC02091FA133091FB134091FC135091FD13C3
S1130BD00E9495462EE13FEC4BE55BE30E9499446D
S1130BE09B01AC0160E070E080E89FE30E94014556
S1130BF023E333E948E853E40E94984460939D104A
S1130C0070939E1080939F109093A0108091C114B4
S1130C1087FD48C08091C11480FD44C060910B14CD
S1130C2070910C1480910D1490910E1420916814FD
S1130C303091691440916A1450916B140E944C468F
S1130C401816A4F060919D1070919E1080919F10D1
S1130C509091A010209148143091491440914A1465
S1130C6050914B140E944C461816E4F41698179AA7
S1130C708091C11481608093C1148091C1148260F9
S1130C808093C11480919D1490919E14909352145A
S1130C90809351148FE19EE40197F1F700C00000A6
S1130CA0169A179AFF90EF90DF90CF900C94A4358A
S1130CB0CF92DF92EF92FF9213981298119A8FE8D5
S1130CC091E00197F1F700C0000084E190E00E94F8
S1130CD04F29139A129A119A0E949A452DEC3CECD2
S1130CE04CE45DE30E949546209113143091141452
S1130CF040911514509116140E9495466B017C0185
S1130D009B01AC0160E070E080E897E40E949844A5
S1130D109B01AC01C701B6010E94014520919510C9
S1130D20309196104091971050919810C0905412A1
S1130D30D0905512E0905612F09057120E949546AA
S1130D40A70196010E9495460E945546209148129B
S1130D503091491240914A1250914B120E9495468B
S1130D602EE13FEC4BE55BE30E9499449B01AC010F
S1130D7060E070E080E89FE30E94014523E333E9EB
S1130D8048E853E40E94984460930B1470930C1445
S1130D9080930D1490930E148091C11487FD48C064
S1130DA08091C11480FD44C060910B1470910C14A7
S1130DB080910D1490910E1420916814309169144F
S1130DC040916A1450916B140E944C461816A4F07A
S1130DD060919D1070919E1080919F109091A01031
S1130DE0209148143091491440914A1450914B1465
S1130DF00E944C461816E4F41698179A8091C11470
S1130E0081608093C1148091C11482608093C11465
S1130E1080919D1490919E14909352148093511438
S1130E208FE19EE40197F1F700C00000169A179A2B
S1130E30FF90EF90DF90CF900C94A4358F929F9207
S1130E40AF92BF92CF92DF92EF92FF92139A129ACF
S1130E5011988FE891E00197F1F700C0000084E158
S1130E6090E00E944F29139A129A119A8090391295
S1130E7090903A12A0903B12B0903C12C090F113A3
S1130E80D090F213E090F313F090F4130E949A457B
S1130E902DEC3CEC4CE45DE30E949546A5019401E5
S1130EA00E949546A70196010E94994460930714F5
S1130EB0709308148093091490930A146091071492
S1130EC0709108148091091490910A142091B00231
S1130ED03091B1024091B2025091B3020E94FD449C
S1130EE087FD14C06091071470910814809109144F
S1130EF090910A142091A0023091A1024091A20283
S1130F005091A3020E944C4618162CF48091A90219
S1130F1084608093A902FF90EF90DF90CF90BF9000
S1130F20AF909F908F9008952F923F924F925F922F
S1130F306F927F928F929F92AF92BF92CF92DF92E5
S1130F40EF92FF920F931F93CF93DF93CDB7DEB74A
S1130F502D970FB6F894DEBF0FBECDBF1092A90235
S1130F60209152152A833091DB143B8380918D1498
S1130F7090918E14A0918F14B091901488879987C2
S1130F80AA87BB878091BC0281FF4FC09091A802C1
S1130F9099836091B70270E080E090E00E949A45E6
S1130FA020E030E040E85FE30E9499446B017C015B
S1130FB0A9816A2F70E080E090E00E949A459B012D
S1130FC0AC01C701B6010E9495469B01AC0160E0EB
S1130FD070E080E89FE30E940145062F372E898345
S1130FE0192F6091A802B090B70270E080E090E001
S1130FF00E949A456B017C016B2D70E080E090E0CB
S11310000E949A459B01AC01C701B6010E94954616
S11310109B01AC0160E070E080E89FE30E94014521
S11310206C837D838E839F8329C06091A802B091D5
S1131030B702B98370E080E090E00E949A456B01AA
S11310407C01E9816E2F70E080E090E00E949A4577
S11310509B01AC01C701B6010E9495469B01AC01FE
S113106060E070E080E89FE30E940145062F372E80
S11310708983192F6C837D838E839F838091AE0235
S11310809091AF0280329E4418F080E69AEE0AC036
S11310908091AE029091AF029C01220F331F820F08
S11310A0931FC2969093B6028093B502EED86B015B
S11310B07C0156D98091BC0280FFB6C08090A40206
S11310C09090A502A090A602B090A7026091AD06F0
S11310D070E061507109072E000C880B990B0E9477
S11310E09C459B01AC01C501B4010E9401452B0143
S11310F03C0120919F0A3091A00A4091A10A50918D
S1131100A20AC701B6010E9495466B017C01609159
S1131110AD0670E061507109072E000C880B990B25
S11311200E949C45A30192010E9495460E94184783
S11311304B015C016091A4027091A5028091A6020A
S11311409091A70226EA3FE049EC5FE30E94FD4448
S1131150A5019401181644F460E070E080E090E486
S11311600E9498449B01AC01C701B6010E9401454D
S11311706B017C01212C8091AD06281608F043C038
S1131180222D30E03D872C87B901330F880B990B52
S11311900E949C45A30192010E9495464B015C016B
S11311A026EA3FE049EC5FE30E94FD44AC85BD853F
S11311B0AA0FBB1FAA0FBB1FBD87AC8718164CF024
S11311C0C501B4010E9418479B01AC01C701B601D7
S11311D00EC0C501B4010E9418479B01AC0160E038
S11311E070E080E090E40E949844A70196010E9478
S11311F09546EC85FD85EF53FD4F608371838283B3
S113120093832394B8CF8091BC0282FF4DC0E091B8
S1131210AD06B4E0EB9FF0011124E354FD4F60816F
S113122071818281938148C020919F0A3091A00AE4
S11312304091A10A5091A20AB090AD06C701B6012F
S11312400E9495466B017C016B2D70E06150710921
S1131250072E000C880B990B0E949C459B01AC0146
S1131260C701B6010E9401454B015C01D12C80915C
S1131270AD06D81640F6ED2CF12C6D2D70E080E013
S113128090E00E949A45A50194010E949546F701B9
S1131290EE0FFF1FEE0FFF1FEF53FD4F60837183AF
S11312A082839383D394E3CF6091C1027091C2028D
S11312B08091C3029091C4020E94A32D8091B50233
S11312C09091B602A895009749F0EFE9FFE03197B5
S11312D0F1F700C00000A8950197F5CFA12C8091EB
S11312E0AD06A81608F076C08091BC02CA2CD12C99
S11312F082FF0CC0E091AD06F0E0EC19FD09EE0FA1
S1131300FF1FEE0FFF1FE354FD4F07C0F601EE0F62
S1131310FF1FEE0FFF1FEF53FD4F6081718182812C
S113132093810E94A32DA895E090AE02F090AF02A5
S1131330F1E0EF1AF1081C86FFEFEF16FF0609F43F
S1131340C7C0A8952C85213081F4ECDB882339F0C3
S11313508091A90282608093A90281E001C080E0AB
S1131360ABE4B6E01197F1F712C0BC85B230A9F432
S11313709FDC882339F08091A90282608093A902BE
S113138081E001C080E0EBE4F6E03197F1F700C0C2
S11313900000882309F4CAC01DC0FC85F33051F451
S11313A04DDD8BE39AE00197F1F700C0000094E073
S11313B09C870CC0ABE9BFE01197F1F700C00000B7
S11313C0BC85BF5FBC87BA3008F01C86E1E0EE1A2A
S11313D0F108B2CF009904C08091A902816003C0D2
S11313E08091A9028E7F8093A90280915F14806806
S11313F080935F1480911C14826080931C148091EC
S11314001D148D7F80931D1488859985AA85BB85BD
S11314108093B3149093B414A093B514B093B614FA
S1131420809152159A81981739F01092E114109214
S1131430E014892F0E9426408091DB14AB81A81709
S113144039F010922615109225158A2F0E94283FF4
S11314506091B3147091B4148091B5149091B61442
S11314600E94A32D1398129811988091B50290911F
S1131470B602A895009749F0EFE9FFE03197F1F73C
S113148000C00000A8950197F5CF80911C148E7FB1
S113149080931C14809127148E7F809327142D969B
S11314A00FB6F894DEBF0FBECDBFDF91CF911F9171
S11314B00F91FF90EF90DF90CF90BF90AF909F90EF
S11314C08F907F906F905F904F903F902F900895F2
S11314D02C813D814E815F81602F732D8981912FF5
S11314E08CD940918D1050918E1060918F10709115
S11314F09010C601880F991F880F991FFC01ED55A4
S1131500F54F408351836283738340913F1250911E
S113151040126091411270914212FC01EE54F94F55
S11315204083518362837383A394D9CEFC85FF5F88
S1131530FC874CCFCF93C82F8091F013C11102C008
S11315408F7B03C0C13039F480648093F0138091A1
S1131550F0138F770AC0C23011F48F7B01C080640E
S11315608093F0138091F01380688093F01340917E
S1131570F01360913D1282E00E9417308FE891E0F1
S11315800197F1F700C00000C0938F0ECF9108952A
S1131590CF93C82F8091F013C11102C08F7E03C076
S11315A0C13039F480618093F0138091F0138F7D02
S11315B00AC0C23011F48F7E01C080618093F013A1
S11315C08091F01380628093F0134091F013609146
S11315D03D1282E00E9417308FE891E00197F1F705
S11315E000C00000C093920ECF91089590918F0E89
S11315F08091900E981719F08091900E9BDF909136
S1131600920E8091910E981719F08091910EC0CF8F
S11316100895BC018091940E8111FCCF90E0292F94
S113162030E0FB01E20FF31F4081442339F0808155
S1131630F901E457F04F80839F5FF1CF80911B1431
S113164086FD06C0F901E457F04F8AE080839F5F6E
S1131650E92FF0E0E457F04F10829093940E81E06C
S113166080938B0F8091C00085FFFCCF5A9A85E050
S11316708A95F1F700008091C10080648093C100D5
S113168080918C0F8093C6000895AC0190918010D6
S1131690992379F09150292F30E0F901EA56F14F5E
S11316A08081FA01E20FF31F2081281789F380E07B
S11316B0089581E00895AC0190918010691778F441
S11316C09150292F30E0F901EA56F14F8081FA0157
S11316D0E20FF31F2081281789F380E0089581E049
S11316E008959C011092801080918010F901E80FF8
S11316F0F11D8081E0918010F0E0882379F08091E1
S11317008010D901A80FB11D8C91EA56F14F808346
S1131710909180109F5F90938010E6CFEA56F14F2E
S113172010820895AC01E0918010F0E0EA56F14F88
S113173089E08083909180109F5F9093801090E067
S1131740DA01A90FB11D8C91E0918010F0E088239B
S113175059F08C91EA56F14F80839F5F209180105D
S11317602F5F20938010ECCFEA56F14F108208953A
S1131770AC016093801090E0FA01E90FF11D208123
S1131780E0918010F0E0EA56F14F222341F02083EB
S1131790209180102F5F209380109F5FEDCF1082E7
S11317A00895E0918010F0E0EA56F14F8FE38083D2
S11317B0809180108F5F80938010E0918010F0E022
S11317C0EA56F14F10820895FB012E2F261B421773
S11317D041F0DC013D91CD012081321304C03196EA
S11317E0F4CF81E0089580E00895AC0190E0E92F02
S11317F0F0E0DB01AE0FBF1F2C91E40FF51F222395
S113180019F020839F5FF3CF10820895CF93DF9365
S1131810DC0190E0FD01E90FF11D8081882311F0C6
S11318209F5FF8CF492F842F891BEB01C80FD11D6F
S11318308881242F30E0FD01E20FF31F882321F07B
S1131840888180834F5FEFCF1082DF91CF9108951D
S11318500F93FC01CB01BA0103E025E0AF010E9424
S1131860B6470F910895CF93DF93CDB7DEB7C65631
S1131870D1090FB6F894DEBF0FBECDBF80911B1403
S113188087FF17C08091940E811113C08091960E2A
S1131890811107C080911B148F7B80931B141092BD
S11318A0930E86E99EE0B5DE80911B148F778093BA
S11318B01B1480911B1487FD3BC09091930E809163
S11318C0AD06981760F5E091930E84E0E89FF0016F
S11318D01124ED55F54F4081518162817381CE0110
S11318E00196B6DF10928010CE0101961BDFE091C5
S11318F0930E84E0E89FF0011124EE54F94F4081E7
S1131900518162817381CE010196A2DFCE010196DD
S113191009DF8091930E8F5F8093930E04C0109221
S1131920930E1092960E80911B14806880931B1462
S1131930CA59DF4F0FB6F894DEBF0FBECDBFDF919B
S1131940CF9108954F925F926F927F928F929F9260
S1131950AF92BF92EF92FF920F931F93CF93DF93B7
S1131960EC018B0180E091E0BCDECE018EDE8823A9
S113197009F463C08091181490911C144AE0B801D2
S11319800E946049C801CEDE40918D1050918E10A6
S113199060918F1070919010C8015ADFC801C2DEA7
S11319A040913F1250914012609141127091421245
S11319B0C8014EDFC801B6DE4091911050919210DB
S11319C06091931070919410C80142DFC801AADE9F
S11319D040910714509108146091091470910A14ED
S11319E0C80136DFC8019EDE40919D1050919E10C3
S11319F060919F107091A010C8012ADFC80192DE87
S1131A0040910B1450910C1460910D1470910E14AC
S1131A10C8011EDFC80186DE80911F1480FD02C04C
S1131A200C94AD1640914C1250914D1260914E128F
S1131A3070914F12C8010CDF7CC086E091E051DE4A
S1131A40CE0123DE882349F180918010FE01E80F46
S1131A50F11D8081811112C0F8018081813321F44C
S1131A6080911D14816007C0803311F00C94C51659
S1131A7080911D148E7F80931D140AC08091801064
S1131A80C80FD11D88818F3311F00C94C51689DEDF
S1131A9080911D1480FF39C012C58DE091E021DED4
S1131AA0F0908010CE01F1DD811132C08AE391E023
S1131AB018DEF0908010CE01E8DD811174C081E25F
S1131AC092E00FDEF0908010CE01DFDD882309F470
S1131AD05DC36F2D80E691E04BDE6F2DCE01EBDD13
S1131AE0882309F4AEC180918010C80FD11D88816C
S1131AF081110C94C5160E94A435882309F423C1CE
S1131B0080911D148D7F80931D1488E391E076C02D
S1131B106F2D8FE091E02CDE6F2DCE01CCDD88237C
S1131B2061F08091181490911C144AE0B8010E944D
S1131B306049C801F7DD0C94AD166F2D84E191E086
S1131B4017DE6F2DCE01B7DD882321F08BE091E005
S1131B50C8DD55C06F2D89E191E00ADE6F2DCE01FD
S1131B60AADD882349F08EE191E0DCDD89E291E091
S1131B70D9DD83E394E142C06F2D86EC91E0F8DD7A
S1131B806F2DCE0198DD882309F490CF8BE091E08E
S1131B90C9DD86E99EE03DDD8091940E8111FCCF84
S1131BA0F8940C9400006F2D80E491E0E1DD6F2D3A
S1131BB0CE0181DD882339F180918010FE01E80F88
S1131BC0F11D8081811108C0C8010E945B486093A7
S1131BD09F1480919F140CC080918010C80FD11D58
S1131BE088818F3311F00C94C516DBDD8091881445
S1131BF04AE0B80190E00E946049C80193DD86E99B
S1131C009EE00C94C7166F2D85E491E0B1DD6F2D35
S1131C10CE0151DD882339F180918010FE01E80F57
S1131C20F11D808181110CC0C8010E943B48609362
S1131C304C1470934D1480934E1490934F140AC017
S1131C4080918010C80FD11D88818F3311F00C94BE
S1131C50C516A7DD40914C1450914D1460914E145B
S1131C6070914F142FC06F2D8DE491E081DD6F2DA5
S1131C70CE0121DD882349F180918010FE01E80F17
S1131C80F11D808181110CC0C8010E943B48609302
S1131C90A7147093A8148093A9149093AA140AC04B
S1131CA080918010C80FD11D88818F3311F00C945E
S1131CB0C51677DD4091A7145091A8146091A9141A
S1131CC07091AA14C801C4DD98CF6F2D85E591E009
S1131CD04FDD6F2DCE01EFDC882309F4F0CE809127
S1131CE08010FE01E80FF11D808181111DC0C80123
S1131CF00E945B486136FAEE7F07810591051CF06E
S1131D0080E69AEE07C016161706180619063CF068
S1131D1081E090E09093BC148093BB140FC0709347
S1131D20BC146093BB140AC080918010C80FD11DED
S1131D3088818F3311F00C94C51633DD6091BB1488
S1131D407091BC142AC18091181485FDD9CE80915C
S1131D50181480FFD5CE80911D14826080931D14C9
S1131D608091AE029091AF0280329E4418F080E6DA
S1131D709AEE0AC08091AE029091AF029C01220FAC
S1131D80331F820F931FC2969093B6028093B502BD
S1131D907090AD06E090AE02F090AF026091AD0697
S1131DA05090B7026090A802C091B502D091B602DB
S1131DB070E080E090E00E949A454B015C01652D43
S1131DC070E080E090E00E949A459B01AC01C5015F
S1131DD0B4010E9495464B015C01662D70E080E0E1
S1131DE090E00E949A4528E539E344EB5CE30E94C5
S1131DF095462EEA37E441E65EE30E9499449B014E
S1131E00AC01C501B4010E9495464B015C01672DEC
S1131E1070E080E090E00E949A452B013C01B701FC
S1131E2080E090E00E949A459B01AC01C301B2019D
S1131E300E9495469B01AC01C501B4010E949944DE
S1131E40FEC16F2D85E691E093DC6F2DCE0133DC6E
S1131E508823A9F180918010C80FD11D88818F3308
S1131E6009F093C780911B14806480931B14109213
S1131E70930E97DC8091A9024AE0B80190E00E9499
S1131E806049C8014FDC80911F1480FF0CC0409151
S1131E904C1250914D1260914E1270914F12C80124
S1131EA0D7DCC8013FDC86E99EE0B3DB80911B14DC
S1131EB08F7780931B1480911C148D7F55C76F2DD1
S1131EC08AE691E055DC6F2DCE01F5DB882351F1D4
S1131ED080918010FE01E80FF11D8081811116C0F0
S1131EE0C8010E945B486B3F71058105910514F0A0
S1131EF08AEF06C0643071058105910524F483E0FE
S1131F008093AD060CC06093AD0609C0809180102B
S1131F10C80FD11D88818F3309F037C742DC809107
S1131F20AD0666CE6F2D8AE591E022DC6F2DCE01E1
S1131F30C2DB8823C9F180918010FE01E80FF11DF6
S1131F40808181111DC0C8010E945B486136EAEEA0
S1131F507E07810591051CF080E69AEE07C01616EF
S1131F601706180619063CF081E090E09093AF0242
S1131F708093AE020EC07093AF026093AE0209C0AC
S1131F8080918010C80FD11D88818F3309F0FDC660
S1131F9008DC6091AE027091AF0280E090E02AE02C
S1131FA0A8010E946A4929CE6F2D81E791E0E0DB08
S1131FB06F2DCE0180DB882359F180918010FE01C2
S1131FC0E80FF11D8081811117C0C8010E945B4890
S1131FD06F3F71058105910519F014F08FEF06C06C
S1131FE0161617061806190624F081E08093A80235
S1131FF00CC06093A80209C080918010C80FD11D45
S113200088818F3309F0C1C6CCDB8091A802F0CD62
S11320106F2D88E791E0ACDB6F2DCE014CDB88237C
S113202059F180918010FE01E80FF11D808181112A
S113203017C0C8010E945B486F3F71058105910577
S113204019F014F08FEF06C01616170618061906B5
S113205024F081E08093B7020CC06093B70209C0FA
S113206080918010C80FD11D88818F3309F08DC6EF
S113207098DB8091B702BCCD6F2D80E491E078DBD2
S11320806F2DCE0118DB882319F180918010FE0199
S1132090E80FF11D808181110FC0C8010E945B48C7
S11320A06F3F71058105910520F087E191E03ADBEE
S11320B00CC06093BC0209C080918010C80FD11D70
S11320C088818F3309F061C66CDB8091BC0290CDAE
S11320D06F2D81E891E04CDB6F2DCE01ECDA882383
S11320E031F180918010FE01E80FF11D8081811192
S11320F00CC0C8010E943B486093A4027093A502DF
S11321008093A6029093A70209C080918010C80F03
S1132110D11D88818F3309F038C643DB4091A40276
S11321205091A5026091A6027091A702CBCD6F2DAC
S11321308BE891E01DDB6F2DCE01BDDA882331F1F0
S113214080918010FE01E80FF11D808181110CC087
S1132150C8010E943B4860939F0A7093A00A809331
S1132160A10A9093A20A09C080918010C80FD11DC2
S113217088818F3309F009C614DB40919F0A50917E
S1132180A00A6091A10A7091A20A9CCD84E991E011
S1132190A8DAF0908010CE0178DA882309F4C9C057
S11321A06F2D80E691E0E4DA6F2DCE0184DA882386
S11321B009F461C080918010C80FD11D88818111FC
S11321C0E4C50E94A435811108C08091181485FDCE
S11321D004C08091181480FD04C080911D148B7F6D
S11321E092CC80911D14846080931D148091AE0262
S11321F09091AF0280329E4418F080E69AEE0AC0B5
S11322008091AE029091AF029C01220F331F820F86
S1132210931FC2969093B6028093B5026091AD0667
S1132220C091B502D091B60270E080E090E00E94C7
S11322309A4520E030E040E251E40E94954620E0D7
S113224030E048E453E40E9499444B015C01BE0130
S113225080E090E00E949A4520E030E040E850E4BD
S11322600E9495469B01AC01C501B4010E949944AA
S11322700E94694594CE6F2D8BE991E079DA6F2D38
S1132280CE0119DA882331F180918010FE01E80F24
S1132290F11D808181110CC0C8010E943B486093EC
S11322A0AE067093AF068093B0069093B10609C052
S11322B080918010C80FD11D88818F3309F065C5C6
S11322C070DA4091AE065091AF066091B0067091FD
S11322D0B106F8CC6F2D8AE591E04ADA6F2DCE0174
S11322E0EAD9882331F180918010FE01E80FF11DB5
S11322F0808181110CC0C8010E943B486093B802E0
S11323007093B9028093BA029093BB0209C0809182
S11323108010C80FD11D88818F3309F036C541DA8A
S11323204091B8025091B9026091BA027091BB0217
S1132330C9CC83EA91E0D5D9F0908010CE01A5D91B
S1132340882309F42DC26F2D8AEA91E011DA6F2DEA
S1132350CE01B1D98823E9F080918010C80FD11D36
S113236088818F3309F011C5409156155091571546
S11323706091581570915915C8016ADAC801D2D90B
S11323804091CE145091CF146091D0147091D11417
S113239099CC6F2D81EB91E0EBD96F2DCE018BD9C8
S11323A08823C1F180918010FE01E80FF11D808126
S11323B0811120C0F801808190E0C0970A9708F04D
S11323C0E4C4C8010E945B4865307105810591052C
S11323D048F08091E2148E7F8093E2148FEF809313
S11323E0061540C02091E21421602093E21460930A
S11323F006150DC080918010C80FD11D88818F33C0
S113240009F0C3C4CED9809106158F3F59F180914C
S11324100615EECB6F2D8DEB91E0AAD96F2DCE0171
S11324204AD98823D1F180918010FE01E80FF11D73
S11324308081811122C0F801808190E0C0970A97C1
S113244008F0A3C4C8010E945B4866307105810589
S1132450910558F08091E2148D7F8093E2148FEF00
S11324608093081588EB91E0C9CB2091E214226097
S11324702093E214609308150DC080918010C80F5A
S1132480D11D88818F3309F080C48BD980910815C0
S11324908F3F41F380910815ABCB6F2D84EC91E015
S11324A067D96F2DCE0107D9882361F08091801000
S11324B0C80FD11D8881811168C40E94DA3C8BE069
S11324C091E09CCB6F2D8AEC91E052D96F2DCE0117
S11324D0F2D8882359F180918010FE01E80FF11D94
S11324E08081811117C0F801808190E0C0970A971C
S11324F008F04BC4C8010E945B486F3F7105810519
S1132500910529F020F08FEF80933C150CC0609367
S11325103C1509C080918010C80FD11D88818F336C
S113252009F033C43ED980913C1562CB6F2D81ED07
S113253091E01ED96F2DCE01BED8882359F1809128
S11325408010FE01E80FF11D8081811117C0F80190
S1132550808190E0C0970A9708F017C4C8010E94D0
S11325605B486F3F71058105910529F020F08FEFDD
S11325708093FD140CC06093FD1409C080918010F9
S1132580C80FD11D88818F3309F0FFC30AD9809108
S1132590FD142ECB6F2D88ED91E0EAD86F2DCE017E
S11325A08AD8882309F4FCC0F09080106F2D80E451
S11325B091E0DED86F2DCE017ED8882309F471C056
S11325C080918010FE01E80FF11D808181114EC0C1
S11325D080911D14806880931D1444E063EB71E0C6
S11325E0C801F2D8813071F48091E2148460809340
S11325F0E2148091E214877F8093E2148FEF80933A
S1132600DB143DC044E06FEB71E0C801DDD88130DC
S113261071F48091E21488608093E2148091E21452
S11326208B7F8093E2148FEF8093521528C08091A2
S11326301D148F7780931D148091E21482FF04C0CF
S11326408FEF8093DB1407C08091E21483FF03C0F3
S11326508FEF809352158091E2148B7F8093E21464
S11326608091E214877F8093E21409C080918010E6
S1132670C80FD11D88818F3309F087C392D8809108
S11326801D1487FF42CA8091E21482FF03C083EBCA
S113269091E0B4CA8091E21483FF27C08FEB91E0EC
S11326A0ADCA6F2D80EE91E063D86F2DCE0103D8B3
S11326B08823B9F180918010FE01E80FF11D80811B
S11326C0811120C0C8010E943B4820911D1427FDA0
S11326D00FC080911D1487FF41C08091E21482FDD8
S11326E01BC08091E21483FD17C08DED91E086CA72
S11326F02091E21422FD04C02091E21423FFE9CFCB
S1132700C8D3E7CF80918010C80FD11D88818F3343
S113271009F03BC346D8DDCF0E94981BAB01BC0136
S1132720D1CA6F2D8EEE91E023D86F2DCE010E9479
S11327305B0B8823A9F180918010FE01E80FF11D45
S11327408081811118C0C8010E943B4820911D144A
S113275027FD07C080911D1487FD17C086EE91E008
S11327604DCA2091E21422FD04C02091E21423FFFB
S1132770F1CF57D4EFCF80918010C80FD11D88813D
S11327808F3309F002C30DD8E5CF8091E21482FDA6
S113279004C08091E21483FFA8CF0E94F61BBECF31
S11327A085EF91E00E94710BF0908010CE010E94A1
S11327B0450B882309F46DC06F2D80E491E00E94DD
S11327C0B80B6F2DCE010E945B0B882309F461C006
S11327D080918010FE01E80FF11D808181112BC0D2
S11327E0C8010E945B48611571058105910559F482
S11327F08091C11480688093C1148091C1148D7F2D
S11328008093C11435C0613071058105910559F477
S11328108091C11480688093C1148091C114826036
S11328208093C1141AC08091C1148F778093C1140E
S113283089E092E0E3C980918010C80FD11D88819E
S11328408F3309F0A2C20E94D10B8091C11480FF82
S113285007C08091C11487FF03C082E092E0CEC913
S11328608091C11480FD07C08091C11487FF03C00B
S11328708AEF91E0C3C98091C11480FF07C08091A1
S1132880C11487FD03C08EE092E0B8C986E192E0EE
S1132890B5C98FE192E00E94710BF0908010CE01D7
S11328A00E94450B882309F484C06F2D85E292E0D1
S11328B00E94B80B6F2DCE010E945B0B882349F058
S11328C040918D1450918E1460918F1470919014D6
S11328D0F9C96F2D8BE292E00E94B80B6F2DCE01E7
S11328E00E945B0B882369F180918010FE01E80F40
S11328F0F11D8081811118C0F801808190E0C0979A
S11329000A9708F042C2C8010E945B48643071050E
S11329108105910520F083E08093900E02C06093BE
S1132920900E8091900E64C980918010C80FD11DC3
S113293088818F3309F029C20E94D10B80918F0EB8
S113294057C96F2D82E392E00E94B80B6F2DCE0120
S11329500E945B0B882369F180918010FE01E80FCF
S1132960F11D8081811118C0F801808190E0C09729
S11329700A9708F00AC2C8010E945B4864307105D6
S11329808105910520F083E08093910E02C060934D
S1132990910E8091910E2CC980918010C80FD11D89
S11329A088818F3309F0F1C10E94D10B8091920E7E
S11329B01FC988E392E00E94710BF0908010CE0151
S11329C00E94450B882309F442C16F2D81E791E0F1
S11329D00E94B80B6F2DCE010E945B0B882309F473
S11329E06FC080918010FE01E80FF11D808181117C
S11329F056C0F801808190E0C0970A9708F0C5C1DD
S1132A00C8010E945B486F3F71058105910521F063
S1132A101CF08FEF90E007C016161706180619066B
S1132A203CF081E090E0909383108093821004C086
S1132A307093831060938210609182107091831060
S1132A40C091061480E090E00E949A454B015C011D
S1132A506C2F70E080E090E00E949A459B01AC01ED
S1132A60C501B4010E9495469B01AC0160E070E091
S1132A7080E89FE30E9401456093991070939A1037
S1132A8080939B1090939C108091DA1481608093C2
S1132A90DA148091DA1482608093DA140AC0809187
S1132AA08010C80FD11D88818F3309F06EC10E9438
S1132AB0D10B80918210909183104AE0B8019BC899
S1132AC06F2D8DE392E00E94B80B6F2DCE010E9412
S1132AD05B0B882309F44AC080918010FE01E80F43
S1132AE0F11D8081811135C0F801808190E0C0978B
S1132AF00A9708F04AC1C8010E945B486F3F7105FC
S1132B008105910519F014F08FEF06C0161617060B
S1132B101806190624F081E080933E1202C06093E7
S1132B203E1260913E1270E080E090E00E949A456F
S1132B309B01AC0160E070E080E89FE30E940145E6
S1132B4060935012709351128093521290935312C7
S1132B500AC080918010C80FD11D88818F3309F07D
S1132B6014C10E94D10B80913E1242C86F2D87E49C
S1132B7092E00E94B80B6F2DCE010E945B0B88235C
S1132B8009F465C080918010FE01E80FF11D808179
S1132B9081114FC0F801808190E0C0970A9708F036
S1132BA0F4C0C8010E945B48653671058105910532
S1132BB014F084E606C0161617061806190624F043
S1132BC081E08093061402C0609306146091821021
S1132BD070918310C091061480E090E00E949A45A1
S1132BE04B015C016C2F70E080E090E00E949A45FC
S1132BF09B01AC01C501B4010E9495469B01AC0147
S1132C0060E070E080E89FE30E94014560939910C2
S1132C1070939A1080939B1090939C108091DA1477
S1132C2081608093DA148091DA1482608093DA14DC
S1132C300AC080918010C80FD11D88818F3309F09C
S1132C40A4C00E94D10B809106140C94F80D81E568
S1132C5092E00E94710BF0908010CE010E94450B0F
S1132C60882361F16F2D88E592E00E94B80B6F2DE7
S1132C70CE010E945B0B882349F080918010C80F1D
S1132C80D11D8881811181C061E013C06F2D80E066
S1132C9091E00E94B80B6F2DCE010E945B0B88233C
S1132CA069F080918010C80FD11D888181116DC099
S1132CB060E0C8010E94A1220C94FD0D8EE592E013
S1132CC00E94710BCE010E94450B882309F45DC05C
S1132CD040919D1050919E1060919F107091A01092
S1132CE0C8010E94280CC8010E94920B40910B1449
S1132CF050910C1460910D1470910E14C8010E942F
S1132D00280CC8010E94920B80911F1480FF0EC0F2
S1132D1040914C1250914D1260914E1270914F128D
S1132D20C8010E94280CC8010E94920BC0E0D0E0A8
S1132D30FE01EE0FFF1FEE0FFF1FEA59FA4E40810E
S1132D40518162817381C8010E94280CC8010E94CC
S1132D50920B2196C830D10559F786E99EE00E946E
S1132D60090B80911C148E7F80931C14DF91CF91EA
S1132D701F910F91FF90EF90BF90AF909F908F9015
S1132D807F906F905F904F90089587E191E0DF917D
S1132D90CF911F910F91FF90EF90BF90AF909F90B4
S1132DA08F907F906F905F904F900C94090BCF930E
S1132DB0DF93CDB7DEB7CC57D1090FB6F894DEBF99
S1132DC00FBECDBF80910710833209F056C0909199
S1132DD006108091950E981350C0DE01A959BF4F7B
S1132DE022E030E0AD01922F8EEF820FF901EA5F0D
S1132DF0FF4E60816930B1F06081611105C0FA0154
S1132E00E80FF11D108232C080918A0F9817A8F53F
S1132E1080818D932F5F3F4F2731310521F784E661
S1132E2092E01CC0FA01E80FF11D108220918A0F74
S1132E302817E0F09F5FDE01119620E0BD01E92F25
S1132E40F0E0EA5FFF4E8081882359F080818D9302
S1132E509F5F2F5F253699F78DE692E00E94090B5C
S1132E600CC0FB01E20FF11D108201C01982BE01EA
S1132E706F5F7F4FCA010E94A20CC458DF4F0FB688
S1132E80F894DEBF0FBECDBFDF91CF9108950C94AF
S1132E903B48CF93DF93CDB7DEB7AC970FB6F8942A
S1132EA0DEBF0FBECDBF2091181421FFB1C0DC01DD
S1132EB0CB012091E21422FF4CC02091DB1421119C
S1132EC00BC089A79AA7ABA7BCA744E050E06CE766
S1132ED071E0CE0189969AC02091DB14213059F417
S1132EE08DA39EA3AFA3B8A744E050E06CE671E0C5
S1132EF0CE0185968BC02091DB14223059F489A32E
S1132F009AA3ABA3BCA344E050E06CE571E0CE010E
S1132F1081967CC02091DB14233059F48D8F9E8FD1
S1132F20AF8FB8A344E050E06CE471E0CE014D965D
S1132F306DC02091DB14243009F06AC0898F9A8F08
S1132F40AB8FBC8F44E050E06CE371E0CE01499656
S1132F505DC02091E21423FF5BC020915215211122
S1132F600BC08D8B9E8BAF8BB88F44E050E06CE22E
S1132F7071E0CE0145964AC020915215213059F492
S1132F80898B9A8BAB8BBC8B44E050E060E271E0A0
S1132F90CE0141963BC020915215223059F48D87C1
S1132FA09E87AF87B88B44E050E064E171E0CE01C6
S1132FB00D962CC020915215233059F489879A8795
S1132FC0AB87BC8744E050E068E071E0CE0109962D
S1132FD01DC020915215243059F48D839E83AF83F4
S1132FE0B88744E050E06CEF70E0CE0105960EC067
S1132FF020915215253061F489839A83AB83BC8375
S113300044E050E060EF70E0CE0101960E946D4B09
S1133010AC960FB6F894DEBF0FBECDBFDF91CF9153
S11330200895CF93DF93CDB7DEB7AC970FB6F8947E
S1133030DEBF0FBECDBF2091181421FFB1C0DC014B
S1133040CB012091E21422FF4CC02091DB1421110A
S11330500BC089A79AA7ABA7BCA744E050E060E8DF
S113306071E0CE0189969AC02091DB14213059F485
S11330708DA39EA3AFA3B8A744E050E060E771E03E
S1133080CE0185968BC02091DB14223059F489A39C
S11330909AA3ABA3BCA344E050E060E671E0CE0188
S11330A081967CC02091DB14233059F48D8F9E8F40
S11330B0AF8FB8A344E050E060E571E0CE014D96D7
S11330C06DC02091DB14243009F06AC0898F9A8F77
S11330D0AB8FBC8F44E050E060E471E0CE014996D0
S11330E05DC02091E21423FF5BC020915215211191
S11330F00BC08D8B9E8BAF8BB88F44E050E060E3A8
S113310071E0CE0145964AC020915215213059F400
S1133110898B9A8BAB8BBC8B44E050E064E271E00A
S1133120CE0141963BC020915215223059F48D872F
S11331309E87AF87B88B44E050E068E171E0CE0130
S11331400D962CC020915215233059F489879A8703
S1133150AB87BC8744E050E06CE071E0CE01099697
S11331601DC020915215243059F48D839E83AF8362
S1133170B88744E050E060E071E0CE0105960EC0EF
S113318020915215253061F489839A83AB83BC83E3
S113319044E050E064EF70E0CE0101960E946D4B74
S11331A0AC960FB6F894DEBF0FBECDBFDF91CF91C2
S11331B00895CF92DF92EF92FF920F931F93CF93D4
S11331C0DF9300D000D0CDB7DEB77C018A0169015E
S11331D0613069F4CA015BDE69837A838B839C83E3
S11331E044E050E0B701CE0101960E946D4B44E0EB
S11331F050E0B701CE0101960E94554B49815A8196
S11332006B817C81C8010E94280CB801C6010E9410
S1133210060C0F900F900F900F90DF91CF911F919C
S11332200F91FF90EF90DF90CF900895EF92FF926F
S11332300F931F93CF93DF938C01EA0179016130DF
S113324089F4CA010E945B486F3F710581059105AD
S113325009F024F497FF03C060E001C06FEFC801D8
S11332600E94764BC8010E94654B4AE0BE0190E083
S11332700E946049BE01C701DF91CF911F910F9158
S1133280FF90EF900C94060CCF92DF92EF92FF9296
S11332900F931F93CF93DF9300D0CDB7DEB76C01AC
S11332A08A0179016130E1F4CA010E945B48611529
S11332B0710521E0820791052CF08FEF9FEF9A832F
S11332C0898307C097FF03C01A82198202C07A83D8
S11332D0698342E050E0B601CE0101960E946D4B35
S11332E042E050E0B601CE0101960E94554B69813F
S11332F07A8180E090E02AE0A8010E946A49B8013E
S1133300C7010E94060C0F900F90DF91CF911F917F
S11333100F91FF90EF90DF90CF900895CF93DF93BC
S113332000D000D0CDB7DEB744E050E0BC01CE0100
S113333001960E94554B69817A818B819C810F9003
S11333400F900F900F90DF91CF91089590912814D2
S1133350953A09F0C5C0811124C080E891E0DEDF10
S113336060935A1570935B1580935C1590935D156B
S11333708CE791E0D3DF6093091570930A1580936D
S11333800B1590930C1584E791E0C8DF6093FE144D
S11333907093FF14809300159093011588E791E0D2
S11333A025C0813069F580E791E0B8DF60935A1554
S11333B070935B1580935C1590935D158CE691E09A
S11333C0ADDF6093091570930A1580930B159093E4
S11333D00C1584E691E0A2DF6093FE147093FF1451
S11333E0809300159093011588E691E097DF609330
S11333F0561570935715809358159093591594C08A
S1133400823021F580E691E089DF60935A1570934C
S11334105B1580935C1590935D158CE591E07EDFE0
S11334206093091570930A1580930B1590930C15EE
S113343084E591E073DF6093FE147093FF1480932E
S113344000159093011588E591E0D0CF833021F5E4
S113345080E591E063DF60935A1570935B15809368
S11334605C1590935D158CE491E058DF6093091529
S113347070930A1580930B1590930C1584E491E0D6
S11334804DDF6093FE147093FF14809300159093A6
S1133490011588E491E0AACF80E491E03FDF6093D6
S11334A05A1570935B1580935C1590935D158CE3AE
S11334B091E034DF6093091570930A1580930B151E
S11334C090930C1584E391E029DF6093FE147093CC
S11334D0FF14809300159093011588E391E086CF43
S11334E010925A1510925B1510925C1510925D158E
S11334F080E090E0A0E8BFE38093091590930A155B
S1133500A0930B15B0930C151092FE141092FF1497
S1133510109200151092011510925615109257151D
S1133520109258151092591580911D1487FF18C0D8
S11335308091E21482FF14C010925A1510925B1508
S113354010925C1510925D1580E090E0A0E8BFE356
S11335508093091590930A15A0930B15B0930C153D
S1133560089590912814953A09F0A9C0811119C0C1
S113357080E391E0D3DE6093D6147093D7148093E4
S1133580D8149093D9148CE291E0C8DE6093D214DD
S11335907093D3148093D4149093D51488E291E05B
S11335A01AC0813011F584E291E0B8DE6093D6143C
S11335B07093D7148093D8149093D91480E291E037
S11335C0ADDE6093D2147093D3148093D41490938B
S11335D0D5148CE191E0A2DE6093CE147093CF14E5
S11335E08093D0149093D11486C08230C9F488E1BA
S11335F091E094DE6093D6147093D7148093D8141A
S11336009093D91484E191E089DE6093D21470938D
S1133610D3148093D4149093D51480E191E0DBCF3C
S11336208330C9F48CE091E079DE6093D614709312
S1133630D7148093D8149093D91488E091E06EDE67
S11336406093D2147093D3148093D4149093D514AC
S113365084E091E0C0CF8430C9F480E091E05EDE84
S11336606093D6147093D7148093D8149093D9147C
S11336708CEF90E053DE6093D2147093D314809354
S1133680D4149093D51488EF90E0A5CF84EF90E004
S113369045DE6093D6147093D7148093D814909316
S11336A0D91480EF90E03ADE6093D2147093D3146F
S11336B08093D4149093D5148CEE90E08CCF109218
S11336C0D6141092D7141092D8141092D91480E002
S11336D090E0A0E8BFE38093D2149093D314A09316
S11336E0D414B093D5141092CE141092CF14109217
S11336F0D0141092D11480911D1487FF18C08091AA
S1133700E21483FF14C01092D6141092D7141092AE
S1133710D8141092D91480E090E0A0E8BFE380931D
S1133720D2149093D314A093D414B093D5140895C1
S11337308091181481FF55C08091E21482FF23C048
S11337408091DB14811103C08CE791E049C0809122
S1133750DB14813019F48CE691E042C08091DB14D3
S1133760823019F48CE591E03BC08091DB14833006
S113377019F48CE491E034C08091DB14843089F531
S11337808CE391E02DC08091E21483FF2AC08091E4
S11337905215811103C08CE291E022C08091521530
S11337A0813019F480E291E01BC08091521582307F
S11337B019F484E191E014C080915215833019F416
S11337C088E091E00DC080915215843019F48CEF9B
S11337D090E006C080915215853019F480EF90E096
S11337E09DCD60E070E080E89FEB0895809118140F
S11337F081FF55C08091E21482FF23C08091DB14C5
S1133800811103C080E891E049C08091DB148130CC
S113381019F480E791E042C08091DB14823019F4FE
S113382080E691E03BC08091DB14833019F480E59D
S113383091E034C08091DB14843089F580E491E018
S11338402DC08091E21483FF2AC08091521581110A
S113385003C080E391E022C080915215813019F4B5
S113386084E291E01BC080915215823019F488E102
S113387091E014C080915215833019F48CE091E0EA
S11338800DC080915215843019F480E091E006C097
S113389080915215853019F484EF90E03FCD60E0BB
S11338A070E080E89FEB0895CF93DF9300D0CDB70D
S11338B0DEB742E050E0BC01CE0101960E94554BB8
S11338C089819A810F900F90DF91CF910895809113
S11338D02814853A19F48BE590E0E6CF81EE94E064
S11338E00895CF93DF9300D000D0CDB7DEB744E086
S11338F050E0BC01CE0101960E94554B69817A814A
S11339008B819C810F900F900F900F90DF91CF913E
S11339100895CF92DF92EF92FF920F931F93CF936C
S1133920DF93CDB7DEB76C01EDB6FEB650E08DB7D0
S11339309EB7841B950B0FB6F8949EBF0FBE8DBF28
S11339400DB71EB70F5F1F4FC8010E94554BB8013A
S1133950C6010E94F50B0FB6F894FEBE0FBEEDBE75
S1133960DF91CF911F910F91FF90EF90DF90CF9057
S113397008954F925F926F927F928F929F92AF922F
S1133980BF92CF92DF92EF92FF920F931F93CF9348
S1133990DF9380E190E00E94654B8093281480912E
S11339A02814853A09F0DAC245E163ED70E083E357
S11339B094E1AFDF88E590E00E94654B80931F148B
S11339C086E590E00E94654B8093171488EE90E0A2
S11339D088DF60939114709392148093931490935E
S11339E094148AE590E00E94654B8093261489E53F
S11339F090E00E94654B809320148DE090E00E943B
S1133A00654B8093AD068FE490E04EDF9093831076
S1133A10809382108EE490E00E94654B809306149C
S1133A208DE490E00E94654B80933E128EE891E015
S1133A300E94654B8093E2148DE891E00E94654BEF
S1133A40809306158CE891E00E94654B80930815DD
S1133A508BE891E00E94654B80933C158AE891E0E5
S1133A600E94654B8093FD1486E891E01DDF9093DE
S1133A7055158093541588E891E016DF9093E4146B
S1133A808093E31484E891E00E94654B80930715CA
S1133A9085E891E00E94654B809327158CE090E0C7
S1133AA00E94654B8093BC0288E090E037DC609311
S1133AB0A4027093A5028093A6029093A70284E0C7
S1133AC090E02CDC60939F0A7093A00A8093A10A73
S1133AD09093A20A81E090E00E94654B8093B70224
S1133AE080E090E00E94654B8093A80282E090E021
S1133AF0DBDE9093AF028093AE028FE090E00E94F1
S1133B00654B8093900E8EE090E00E94654B80930D
S1133B10910E89E490E002DC6093F1137093F21348
S1133B208093F3139093F41385E490E0F7DB6093B0
S1133B30391270933A1280933B1290933C1281E4B1
S1133B4090E0ECDB609358127093591280935A12F0
S1133B5090935B128DE390E0E1DB609335127093F8
S1133B603612809337129093381289E390E0D6DBB3
S1133B706093F5137093F6138093F7139093F813EF
S1133B8085E390E0CBDB60930F1470931014809363
S1133B9011149093121481E390E0C0DB609302143B
S1133BA07093031480930414909305148DE290E0B1
S1133BB0B5DB609384107093851080938610909386
S1133BC0871089E290E0AADB6093FA137093FB13E9
S1133BD08093FC139093FD1385E290E09FDB609348
S1133BE0131470931414809315149093161481E293
S1133BF090E094DB609395107093961080939710E7
S1133C00909398108DE190E089DB60935412709347
S1133C105512809356129093571289E190E07EDBFF
S1133C20609348127093491280934A1290934B12F6
S1133C3085E190E073DB6093FE137093FF13809330
S1133C4000149093011481E190E068DB6093891083
S1133C5070938A1080938B1090938C108FEC90E06B
S1133C605DDB6093991470939A1480939B149093E2
S1133C709C148BEC90E052DB6093571470935814AF
S1133C808093591490935A1487EC90E047DB609327
S1133C90601470936114809362149093631483ECA2
S1133CA090E03CDB60936C1470936D1480936E14FD
S1133CB090936F148FEB90E031DB609389147093D1
S1133CC08A1480938B1490938C148BEB90E026DBF6
S1133CD060932F14709330148093311490933214A2
S1133CE087EB90E01BDB6093C6147093C71480933A
S1133CF0C8149093C91483EB90E010DB609395147F
S1133D007093961480939714909398148FEA90E08C
S1133D1005DB6093B0027093B1028093B20290937A
S1133D20B3028BEA90E0FADA6093A0027093A102E6
S1133D308093A2029093A30287EA90E0EFDA609363
S1133D40841470938514809386149093871483EA63
S1133D5090E0E4DA6093B7147093B8148093B914C4
S1133D609093BA148FE990E0D9DA60937414709345
S1133D70751480937614909377148BE990E0CEDADF
S1133D806093A2147093A3148093A4149093A51425
S1133D9087E990E0C3DA6093AF147093B014809312
S1133DA0B1149093B2146091AF147091B0148091D7
S1133DB0B1149091B2142091AF143091B014409189
S1133DC0B1145091B2140E9495466093AF1470934D
S1133DD0B0148093B1149093B21485E990E064DD3B
S1133DE09093BC148093BB1481E990E097DA6093BC
S1133DF07C1470937D1480937E1490937F148DE8CB
S1133E0090E08CDA60932B1470932C1480932D140F
S1133E1090932E1489E890E081DA60935B14709398
S1133E205C1480935D1490935E1485E890E076DAD8
S1133E306093AB147093AC148093AD149093AE1450
S1133E4081E890E06BDA6093641470936514809356
S1133E5066149093671487E590E00E94654B809305
S1133E601D1480E890E00E94654B80939F148CE7BA
S1133E7090E054DA60934C1470934D1480934E1474
S1133E8090934F1488E790E049DA6093A7147093F5
S1133E90A8148093A9149093AA1487E790E00E9431
S1133EA0654B8093C11483E790E038DA609348143B
S1133EB07093491480934A1490934B148FE690E0C6
S1133EC02DDA609378147093791480937A14909314
S1133ED07B148BE690E022DA609368147093691483
S1133EE080936A1490936B1487E690E017DA6093DA
S1133EF0C2147093C3148093C4149093C51483E6BE
S1133F0090E00CDA6093801470938114809382148F
S1133F10909383148FE590E001DA609370147093AA
S1133F20711480937214909373148DE590E0BCDC4B
S1133F3090939E1480939D1482E590E0EFD9609352
S1133F40221470932314809324149093251481E5F0
S1133F5090E00E94654B80932A1457C266E772E092
S1133F6083E394E10E94F50BE1E0E0931F1483E006
S1133F708093171480E094E2A4EFB0E0809391144E
S1133F8090939214A0939314B093941485E0809327
S1133F90261494E6909320149AE09093AD06C1E021
S1133FA0D0E0D0938310C0938210E0930614E09382
S1133FB03E121092E21494E0909306158093081533
S1133FC08FEF80933C158093FD148AEF90E09093DB
S1133FD05515809354159093E4148093E31484E668
S1133FE090E090935515809354159093E414809326
S1133FF0E3141092BC0286EA9FE0A9ECBFE380932D
S1134000A4029093A502A093A602B093A7028EEAFD
S113401097E4A1E8BFE380939F0A9093A00AA0933A
S1134020A10AB093A20AE093B702E093A80285E044
S113403090E09093AF028093AE021092900E109293
S1134040910E1092F1131092F2131092F313109236
S1134050F41380E090E0A0E8BFE3809339129093DA
S11340603A12A0933B12B0933C1210925812109241
S1134070591210925A1210925B1280933512909337
S11340803612A0933712B09338121092F51310928F
S1134090F6131092F7131092F8132FEAC22E23E2AC
S11340A0D22E2EEEE22E2EE3F22EC0920F14D092D8
S11340B01014E0921114F092121400E010E523E4BD
S11340C037E40093021410930314209304143093E0
S11340D0051447E157EB61ED78E340938410509366
S11340E085106093861070938710F9E98F2EF1EA9A
S11340F09F2EF8E9AF2EF9E3BF2E8092FA13909227
S1134100FB13A092FC13B092FD13C0921314D0922F
S11341101414E0921514F092161400939510109351
S11341209610209397103093981040935412509304
S1134130551260935612709357124DE557E763E892
S113414079E3409348125093491260934A12709352
S11341504B1240E050E062E274E44093FE1350934B
S1134160FF1360930014709301148093891090934B
S11341708A10A0938B10B0938C1010929914109203
S11341809A1410929B1410929C1440E050E060E248
S113419072E44093571450935814609359147093D5
S11341A05A1440E050E060EA70E440936014509385
S11341B06114609362147093631400E010E02CE0C7
S11341C032E400936C1410936D1420936E143093A6
S11341D06F141092891410928A1410928B141092F6
S11341E08C1400E010E020EA32E400932F141093C2
S11341F0301420933114309332144093C6145093E6
S1134200C7146093C8147093C91400E010E020E749
S113421032E40093951410939614209397143093DA
S1134220981400E010E62AE636E40093B0021093F6
S1134230B1022093B2023093B30200E018EC2FE2F3
S113424037E40093A0021093A1022093A2023093BA
S1134250A302412C512C1AE7612E14E4712E4092D2
S1134260841450928514609286147092871400E02E
S113427010E020E231E40093B7141093B8142093B3
S1134280B9143093BA14FAE98F2EF9E99F2EA92CA8
S1134290FFE3BF2E8092741490927514A09276144A
S11342A0B0927714FAE9CF2EF9E9DF2EF9E1EF2E77
S11342B0FFE3FF2EC092A214D092A314E092A414A0
S11342C0F092A514C12CF4E2DF2EF4E7EF2EF9E40A
S11342D0FF2EC092AF14D092B014E092B114F092B9
S11342E0B214D093BC14C093BB1440927C1450926B
S11342F07D1460927E1470927F1480932B1490939B
S11343002C14A0932D14B0932E1480925B149092CD
S11343105C14A0925D14B0925E148AE999E9A9E153
S1134320BFE38093AB149093AC14A093AD14B093FB
S1134330AE140093641410936514209366143093A0
S1134340671410921D1410929F1410924C14109222
S11343504D1410924E1410924F141092A7141092F0
S1134360A8141092A9141092AA141092C114C12C6A
S1134370D12CA0EFEA2EA1E4FA2EC0924814D092D8
S11343804914E0924A14F0924B1480E090E0A8ECB7
S1134390B1E48093781490937914A0937A14B09331
S11343A07B14C0926814D0926914E0926A14F0925B
S11343B06B148093C2149093C314A093C414B09349
S11343C0C5140093801410938114209382143093A5
S11343D08314409370145093711460937214709307
S11343E0731480E699E090939E1480939D1480E06A
S11343F090E0ACE8B2E48093221490932314A09349
S11344002414B0932514E0932A14609182107091BF
S113441083101091061480E090E00E949A456B018D
S11344207C01612F70E080E090E00E949A459B013E
S1134430AC01C701B6010E9495469B01AC0160E046
S113444070E080E89FE30E940145609399107093A7
S11344509A1080939B1090939C1060913E1270E090
S113446080E090E00E949A459B01AC0160E070E01E
S113447080E89FE30E9401456093501270935112AB
S113448080935212909353126091911470919214EC
S113449080919314909194140E949C4520E034E2FE
S11344A044E759E40E9401459B01AC0160E070E0DF
S11344B080E89FE30E94014520E030E04DE353E4AF
S11344C00E9495466093BD027093BE028093BF0222
S11344D09093C002609191147091921480919314FE
S11344E0909194140E949C4520E034E244E759E4FE
S11344F00E9401459B01AC0160E070E080E89FE30D
S11345000E94014520E030E040E051E40E949546DD
S11345106093AA027093AB028093AC029093AD02B5
S1134520DF91CF911F910F91FF90EF90DF90CF908B
S1134530BF90AF909F908F907F906F905F904F90BF
S113454008958F929F92AF92BF92DF92EF92FF9263
S11345500F931F93CF93DF93CDB7DEB7C557D10920
S11345600FB6F894DEBF0FBECDBF8C01F62E81E0EE
S113457068133DC0F801CE0101964C01DC01D12C39
S11345805C018191893069F0811105C08EE792E068
S11345900E94090B5DC68D93D39496E0D912F1CF96
S11345A0F5CFF401ED0DF11D1082C4010E943E48C7
S11345B0E82ED39490E0F801ED0DF11D2081222323
S11345C061F0F40121934F01D3949F5F913699F7E1
S11345D08EE892E00E94090B3BC6F501E90FF11D3C
S11345E010824AE0B80190E00E94604904C0C8010A
S11345F00E943E48E82E6EE972E0C8010E94060C53
S1134600E1100AC09801AE014F5F5F4F6F2D80E14A
S113461090E00E9416191CC6F1E0EF1221C0FF12AF
S113462011C0BE016F5F7F4FCE018F599F4F0E9413
S1134630F50B44E150E063ED70E0CE018F599F4FDC
S11346400E946D4B44E163ED70E0CE018F599F4FA2
S113465060D9BE016F597F4FC8010E94060CF8C58E
S113466082E0E8120AC09801AE014F5F5F4F6F2DE0
S113467088E590E00E941619EBC593E0E9120AC0A0
S11346809801AE014F5F5F4F6F2D86E590E00E9469
S11346901619DEC5E5E0EE1226C0F1E0FF1213C0E4
S11346A0CE0101960E945B48A5966CAF7DAF8EAF9C
S11346B09FAFA59744E050E068EE70E0CE018F59BB
S11346C09F4F0E946D4B88EE90E00BD92AE0AE011B
S11346D04F5F5F4F0E946A49BE016F5F7F4FC80101
S11346E00E94060CB5C586E0E8120AC09801AE0126
S11346F04F5F5F4F6F2D8BE590E00E944419A8C572
S113470097E0E9120AC09801AE014F5F5F4F6F2D29
S11347108AE590E00E9416199BC5E8E0EE120AC0F3
S11347209801AE014F5F5F4F6F2D89E590E00E94C5
S113473016198EC5FAE0EF120AC09801AE014F5F58
S11347405F4F6F2D8FE490E00E94441981C58BE088
S1134750E8120AC09801AE014F5F5F4F6F2D8DE4E0
S113476090E00E94161974C59CE0E9120AC09801F1
S1134770AE014F5F5F4F6F2D8EE490E00E941619DB
S113478067C5E4E1EE120AC09801AE014F5F5F4FC6
S11347906F2D8EE891E00E9416195AC5F5E1EF12CB
S11347A00AC09801AE014F5F5F4F6F2D8DE891E015
S11347B00E9416194DC586E1E8120AC09801AE019F
S11347C04F5F5F4F6F2D8CE891E00E94161940C532
S11347D097E1E9120AC09801AE014F5F5F4F6F2D58
S11347E086E891E00E94441933C5E8E1EE120AC05C
S11347F09801AE014F5F5F4F6F2D88E891E00E94F2
S1134800441926C5F5E5EF120AC09801AE014F5FC1
S11348105F4F6F2D84E891E00E94161919C586E553
S1134820E8120AC09801AE014F5F5F4F6F2D85E813
S113483091E00E9416190CC599E1E9120AC0980189
S1134840AE014F5F5F4F6F2D80E891E00E94D91851
S1134850FFC4EAE1EE120AC09801AE014F5F5F4F58
S11348606F2D8CE791E00E94D918F2C4FBE1EF129E
S11348700AC09801AE014F5F5F4F6F2D88E791E04A
S11348800E94D918E5C48CE1E8120AC09801AE016F
S11348904F5F5F4F6F2D84E791E00E94D918D8C411
S11348A09EE1E9120AC09801AE014F5F5F4F6F2D80
S11348B080E791E00E94D918CBC4EFE1EE120AC060
S11348C09801AE014F5F5F4F6F2D8CE691E00E941F
S11348D0D918BEC4F0E2EF120AC09801AE014F5FCE
S11348E05F4F6F2D88E691E00E94D918B1C481E230
S11348F0E8120AC09801AE014F5F5F4F6F2D84E646
S113490091E00E94D918A4C493E2E9120AC0980164
S1134910AE014F5F5F4F6F2D80E691E00E94D91882
S113492097C4E4E2EE120AC09801AE014F5F5F4FF4
S11349306F2D8CE591E00E94D9188AC4F5E2EF123C
S11349400AC09801AE014F5F5F4F6F2D88E591E07B
S11349500E94D9187DC486E2E8120AC09801AE010B
S11349604F5F5F4F6F2D84E591E00E94D91870C4AA
S113497098E2E9120AC09801AE014F5F5F4F6F2DB4
S113498080E591E00E94D91863C4E9E2EE120AC0FE
S11349909801AE014F5F5F4F6F2D8CE491E00E9450
S11349A0D91856C4FAE2EF120AC09801AE014F5F5B
S11349B05F4F6F2D88E491E00E94D91849C48BE2BF
S11349C0E8120AC09801AE014F5F5F4F6F2D84E477
S11349D091E00E94D9183CC49DE2E9120AC09801F2
S11349E0AE014F5F5F4F6F2D80E491E00E94D918B4
S11349F02FC4EEE2EE120AC09801AE014F5F5F4F82
S1134A006F2D8CE391E00E94D91822C4FFE2EF12CB
S1134A100AC09801AE014F5F5F4F6F2D88E391E0AC
S1134A200E94D91815C480E3E8120AC09801AE01A7
S1134A304F5F5F4F6F2D84E391E00E94D91808C443
S1134A4097E3E9120AC09801AE014F5F5F4F6F2DE3
S1134A5080E391E00E94D918FBC3E8E3EE120AC098
S1134A609801AE014F5F5F4F6F2D8CE291E00E9481
S1134A70D918EEC3F9E3EF120AC09801AE014F5FF3
S1134A805F4F6F2D88E291E00E94D918E1C38CE357
S1134A90E8120AC09801AE014F5F5F4F6F2D84E2A8
S1134AA091E00E94D918D4C39DE3E9120AC0980189
S1134AB0AE014F5F5F4F6F2D80E291E00E94D918E5
S1134AC0C7C3EEE3EE120AC09801AE014F5F5F4F19
S1134AD06F2D8CE191E00E94D918BAC3F1E4EF1272
S1134AE00AC09801AE014F5F5F4F6F2D88E191E0DE
S1134AF00E94D918ADC382E4E8120AC09801AE013D
S1134B004F5F5F4F6F2D84E191E00E94D918A0C3DD
S1134B1093E4E9120AC09801AE014F5F5F4F6F2D15
S1134B2080E191E00E94D91893C3E6E4EE120AC032
S1134B309801AE014F5F5F4F6F2D8CE091E00E94B2
S1134B40D91886C3F7E4EF120AC09801AE014F5F8B
S1134B505F4F6F2D88E091E00E94D91879C388E4F3
S1134B60E8120AC09801AE014F5F5F4F6F2D84E0D9
S1134B7091E00E94D9186CC39BE4E9120AC0980121
S1134B80AE014F5F5F4F6F2D80E091E00E94D91816
S1134B905FC3ECE4EE120AC09801AE014F5F5F4FB1
S1134BA06F2D8CEF90E00E94D91852C3FDE4EF12F0
S1134BB00AC09801AE014F5F5F4F6F2D88EF90E000
S1134BC00E94D91845C380E5E8120AC09801AE01D5
S1134BD04F5F5F4F6F2D84EF90E00E94D91838C368
S1134BE091E5E9120AC09801AE014F5F5F4F6F2D46
S1134BF080EF90E00E94D9182BC3E2E5EE120AC0C0
S1134C009801AE014F5F5F4F6F2D8CEE90E00E94D4
S1134C10D9181EC3F3E5EF120AC09801AE014F5F25
S1134C205F4F6F2D8BE891E00E94161911C384E544
S1134C30E8120AC09801AE014F5F5F4F6F2D8AE8FA
S1134C4091E00E94161904C39AE5E9120AC098017A
S1134C50AE014F5F5F4F6F2D89E490E00E94D91839
S1134C60F7C2EBE5EE120AC09801AE014F5F5F4F49
S1134C706F2D85E490E00E94D918EAC2FFE5EF1297
S1134C800AC09801AE014F5F5F4F6F2D81E490E041
S1134C900E94D918DDC280E6E8120AC09801AE016C
S1134CA04F5F5F4F6F2D8DE390E00E94D918D0C203
S1134CB091E6E9120AC09801AE014F5F5F4F6F2D74
S1134CC089E390E00E94D918C3C2E4E6EE120AC058
S1134CD09801AE014F5F5F4F6F2D85E390E00E9416
S1134CE0D918B6C2F5E6EF120AC09801AE014F5FBB
S1134CF05F4F6F2D81E390E00E94D918A9C286E628
S1134D00E8120AC09801AE014F5F5F4F6F2D8DE22C
S1134D1090E00E94D9189CC297E6E9120AC0980153
S1134D20AE014F5F5F4F6F2D89E290E00E94D9186A
S1134D308FC2E9E6EE120AC09801AE014F5F5F4FE1
S1134D406F2D85E290E00E94D91882C2FAE6EF1234
S1134D500AC09801AE014F5F5F4F6F2D81E290E072
S1134D600E94D91875C28BE6E8120AC09801AE01F8
S1134D704F5F5F4F6F2D8DE190E00E94D91868C29C
S1134D809CE6E9120AC09801AE014F5F5F4F6F2D98
S1134D9089E190E00E94D9185BC2EEE6EE120AC0E7
S1134DA09801AE014F5F5F4F6F2D85E190E00E9447
S1134DB0D9184EC2FFE6EF120AC09801AE014F5F48
S1134DC05F4F6F2D81E190E00E94D91841C283E7C3
S1134DD0E8120AC09801AE014F5F5F4F6F2D8FE05C
S1134DE090E00E94161934C294E7E9120AC09801AF
S1134DF0AE014F5F5F4F6F2D8EE090E00E94161959
S1134E0027C2EDE7EE120AC09801AE014F5F5F4F73
S1134E106F2D8FEC90E00E94D9181AC2FEE7EF12B2
S1134E200AC09801AE014F5F5F4F6F2D8BEC90E08D
S1134E300E94D9180DC28FE7E8120AC09801AE018A
S1134E404F5F5F4F6F2D87EC90E00E94D91800C22E
S1134E5090E8E9120AC09801AE014F5F5F4F6F2DD1
S1134E6083EC90E00E94D918F3C1E2E8EE120AC084
S1134E709801AE014F5F5F4F6F2D8FEB90E00E9462
S1134E80D918E6C1F3E8EF120AC09801AE014F5FEA
S1134E905F4F6F2D8BEB90E00E94D918D9C184E845
S1134EA0E8120AC09801AE014F5F5F4F6F2D87EB88
S1134EB090E00E94D918CCC195E8E9120AC0980183
S1134EC0AE014F5F5F4F6F2D83EB90E00E94D918C6
S1134ED0BFC1E7E8EE120AC09801AE014F5F5F4F11
S1134EE06F2D8FEA90E00E94D918B2C1F8E8EF1252
S1134EF00AC09801AE014F5F5F4F6F2D8BEA90E0BF
S1134F000E94D918A5C18CE8E8120AC09801AE0124
S1134F104F5F5F4F6F2D8DE090E00E94161998C18E
S1134F209DE8E9120AC09801AE014F5F5F4F6F2DF3
S1134F308CE090E00E9416198BC1EEE8EE120AC0D4
S1134F409801AE014F5F5F4F6F2D88E090E00E94A3
S1134F50D9187EC1FFE8EF120AC09801AE014F5F75
S1134F605F4F6F2D84E090E00E94D91871C180E9F1
S1134F70E8120AC09801AE014F5F5F4F6F2D82E0C7
S1134F8090E00E94441964C191E9E9120AC09801B1
S1134F90AE014F5F5F4F6F2D81E090E00E941619C4
S1134FA057C1E2E9EE120AC09801AE014F5F5F4FAC
S1134FB06F2D80E090E00E9416194AC1F6E9EF12C5
S1134FC00AC09801AE014F5F5F4F6F2D87EA90E0F2
S1134FD00E94D9183DC187E9E8120AC09801AE01C0
S1134FE04F5F5F4F6F2D83EA90E00E94D91830C164
S1134FF098E9E9120AC09801AE014F5F5F4F6F2D27
S11350008FE990E00E94D91823C1E9E9EE120AC0A1
S11350109801AE014F5F5F4F6F2D8BE990E00E94C6
S1135020D91816C1FAE9EF120AC09801AE014F5F10
S11350305F4F6F2D87E990E00E94D91809C18BE971
S1135040E8120AC09801AE014F5F5F4F6F2D85E9EA
S113505090E00E944419FCC090EAE9120AC0980149
S1135060AE014F5F5F4F6F2D81E990E00E94D91828
S1135070EFC0E1EAEE120AC09801AE014F5F5F4F44
S11350806F2D8DE890E00E94D918E2C0F2EAEF1289
S11350900AC09801AE014F5F5F4F6F2D89E890E021
S11350A00E94D918D5C083EAE8120AC09801AE015B
S11350B04F5F5F4F6F2D85E890E00E94D918C8C0FC
S11350C094EAE9120AC09801AE014F5F5F4F6F2D59
S11350D081E890E00E94D918BBC0E5EAEE120AC04C
S11350E09801AE014F5F5F4F6F2D87E590E00E94FE
S11350F01619AEC0F6EAEF120AC09801AE014F5F6E
S11351005F4F6F2D80E890E00E941619A1C087EAD6
S1135110E8120AC09801AE014F5F5F4F6F2D8CE714
S113512090E00E94D91894C098EAE9120AC0980144
S1135130AE014F5F5F4F6F2D88E790E00E94D91852
S113514087C0EFEAEE120AC09801AE014F5F5F4FCD
S11351506F2D87E790E00E9416197AC0F0EBEF12EA
S11351600AC09801AE014F5F5F4F6F2D83E790E057
S11351700E94D9186DC081EBE8120AC09801AE01F3
S11351804F5F5F4F6F2D8FE690E00E94D91860C08B
S113519092EBE9120AC09801AE014F5F5F4F6F2D89
S11351A08BE690E00E94D91853C0E3EBEE120AC0DC
S11351B09801AE014F5F5F4F6F2D87E690E00E942C
S11351C0D91846C0F4EBEF120AC09801AE014F5F44
S11351D05F4F6F2D83E690E00E94D91839C085EBAC
S11351E0E8120AC09801AE014F5F5F4F6F2D8FE543
S11351F090E00E94D9182CC096EBE9120AC09801DD
S1135200AE014F5F5F4F6F2D8DE590E00E94441912
S11352101FC0E7EBEE120AC09801AE014F5F5F4F6B
S11352206F2D82E590E00E94D91812C0F8EBEF12BE
S11352300AC09801AE014F5F5F4F6F2D81E590E08A
S11352400E94161905C067E171E0C8010E94060CAE
S1135250CB58DF4F0FB6F894DEBF0FBECDBFDF9142
S1135260CF911F910F91FF90EF90DF90BF90AF907F
S11352709F908F90089585E08A95F1F700002A9A0F
S113528080E18A95F1F72A981EBC0DB407FEFDCF84
S11352909EB51EBC0DB407FEFDCF8EB50895CF920A
S11352A0DF92EF92FF929C01C12CD12C760160E039
S11352B070E0CB0121153105E1F02150310945E0C1
S11352C04A95F1F700002A9A40E14A95F1F72A98A5
S11352D01EBC0DB407FEFDCF4EB5D42E1EBC0DB4BE
S11352E007FEFDCF4EB5C42E6C0D7D1D8E1D9F1D7A
S11352F0E1CFFF90EF90DF90CF900895CF92DF92AF
S1135300EF92FF929C01C12CD12C7601109288104F
S11353101092F91360E070E0CB01F1E02115310542
S113532051F12150310945E04A95F1F700002A9ADC
S113533040E14A95F1F72A981EBC0DB407FEFDCF53
S1135340EEB5DE2E1EBC0DB407FEFDCFEEB5CE2E9F
S1135350AD2DD11005C0E11109C0F093F91306C0B9
S1135360AF3F21F4EF3F11F4F09388106C0D7D1DD5
S11353708E1D9F1DD3CFFF90EF90DF90CF900895A7
S11353804F925F926F927F928F929F92AF92BF9251
S1135390CF92DF92EF92FF928091821090918310CE
S11353A0ADDF139A1298119830914312209106148C
S11353B0321710F0109243122091DA1420FF15C016
S11353C02091DA142E7F2093DA14209106142223DC
S11353D0C1F0215034E0239FF0011124EF55FF4E1A
S11353E06083718382839383F2CFE091431224E03C
S11353F0E29FF0011124EF55FF4E60837183828395
S113540093832091061460E070E0CB01222381F0A5
S1135410215034E0239FF0011124EF55FF4EC0804A
S1135420D180E280F3806C0D7D1D8E1D9F1DEECF1B
S11354304090991050909A1060909B1070909C101E
S113544080905A1590905B15A0905C15B0905D15F6
S1135450C0900915D0900A15E0900B15F0900C152A
S11354600E949A45A30192010E949546A5019401C8
S11354700E949944A70196010E94954660938D105D
S113548070938E1080938F10909390108091F913E5
S1135490882349F0809118148460809318148091B3
S11354A0E21480621AC080918810882371F0809180
S11354B018148460809318148091E214806180939E
S11354C0E2148091E2148F7D0DC0809118148B7FBB
S11354D0809318148091E2148F7D8093E21480915C
S11354E0E2148F7E8093E21487EF90E00197F1F746
S11354F000C000008091821090918310FFDE139809
S1135500129A11982091DA1421FF15C02091DA140F
S11355102D7F2093DA14209106142223C1F0215008
S113552034E0239FF0011124E45AFD4E608371831B
S113553082839383F2CFE091431224E0E29FF0014F
S11355401124E45AFD4E6083718382839383809196
S113555043128F5F809343122091061460E070E041
S1135560CB01222381F0215034E0239FF001112448
S1135570E45AFD4EC080D180E280F3806C0D7D1D25
S11355808E1D9F1DEECF4090991050909A10609000
S11355909B1070909C108090D6149090D714A0907B
S11355A0D814B090D914C090D214D090D314E090F1
S11355B0D414F090D5140E949A45A30192010E943C
S11355C09546A50194010E949944A70196010E9461
S11355D095466093441270934512809346129093BB
S11355E0471260918D1070918E1080918F10909160
S11355F090102091FE143091FF14409100155091A9
S11356000115C0904412D0904512E0904612F090DB
S113561047120E949546A70196010E9499446093FF
S11356203F127093401280934112909342128091E2
S1135630F913882349F08091181488608093181412
S11356408091E21480681AC080918810882371F0D8
S1135650809118148860809318148091E2148064F7
S11356608093E2148091E2148F770DC08091181416
S1135670877F809318148091E2148F778093E214CB
S11356808091E2148F7B8093E21485ED8A95F1F783
S1135690000080913E1290E002DE139A129A119853
S11356A0C0905012D0905112E0905212F0905312C8
S11356B00E949A45A70196010E9495466093911015
S11356C07093921080939310909394108FE591E0CF
S11356D00197F1F700C0000080913E1290E0DFDDF9
S11356E0139A1298119A409050125090511260904F
S11356F05212709053128090391290903A12A090E6
S11357003B12B0903C12C090F113D090F213E09091
S1135710F313F090F4130E949A45A30192010E949E
S11357209546A50194010E949546A70196010E9401
S11357309944609307147093081480930914909308
S11357400A1483E291E00197F1F700C00000809110
S11357503E1290E0A4DD13981298119AC090501252
S1135760D0905112E0905212F09053120E949A4538
S1135770A70196010E94954620910F1430911014B0
S113578040911114509112140E9495466B017C01B2
S11357909B01AC0160E070E080E897E40E949844CB
S11357A09B01AC01C701B6010E940145209102147E
S11357B0309103144091041450910514C090841046
S11357C0D0908510E0908610F09087100E94954646
S11357D0A70196010E9495460E9455462091FA130E
S11357E03091FB134091FC135091FD130E94954698
S11357F02EE13FEC4BE55BE30E9499449B01AC0135
S113580060E070E080E89FE30E94014523E333E910
S113581048E853E40E94984460939D1070939E104E
S113582080939F109093A01080913E1290E037DDFA
S1135830139812981198C0905012D0905112E09081
S11358405212F09053120E949A45A70196010E94A9
S113585095462091131430911414409115145091CD
S113586016140E9495466B017C019B01AC0160E01B
S113587070E080E897E40E9498449B01AC01C70162
S1135880B6010E94014520919510309196104091E7
S1135890971050919810C0905412D0905512E090E7
S11358A05612F09057120E949546A70196010E9445
S11358B095460E94554620914812309149124091D4
S11358C04A1250914B120E9495462EE13FEC4BE553
S11358D05BE30E9499449B01AC0160E070E080E8C6
S11358E09FE30E94014523E333E948E853E40E941F
S11358F0984460930B1470930C1480930D1490933C
S11359000E14FF90EF90DF90CF90BF90AF909F90D8
S11359108F907F906F905F904F9008954F925F9219
S11359206F927F928F929F92AF92BF92CF92DF92AB
S1135930EF92FF921398129811988FE891E00197D3
S1135940F1F700C00000209106148091821090911C
S11359508310AC01249FC001259F900D1124CEDC3F
S11359604090991050909A1060909B1070909C10E9
S113597080905A1590905B15A0905C15B0905D15C1
S1135980C0900915D0900A15E0900B15F0900C15F5
S11359900E949A45A30192010E949546A501940193
S11359A00E949944A70196010E94954660938D1028
S11359B070938E1080938F10909390108091F913B0
S11359C0882321F08091E214806210C080918810B5
S11359D0882349F08091E21480618093E2148091DD
S11359E0E2148F7D08C08091E2148F7D8093E214CD
S11359F08091E2148F7E8093E214139A129A119A82
S1135A00FF90EF90DF90CF90BF90AF909F908F90DA
S1135A107F906F905F904F9008954F925F926F9236
S1135A207F928F929F92AF92BF92CF92DF92EF922A
S1135A30FF92139A129811988FE891E00197F1F769
S1135A4000C0000020910614809182109091831070
S1135A50AC01249FC001259F900D11244FDC409080
S1135A60991050909A1060909B1070909C108090A8
S1135A70D6149090D714A090D814B090D914C09094
S1135A80D214D090D314E090D414F090D5140E9482
S1135A909A45A30192010E949546A50194010E9492
S1135AA09944A70196010E9495466093441270930D
S1135AB0451280934612909347128091F9138823DC
S1135AC021F08091E214806810C0809188108823AE
S1135AD049F08091E21480648093E2148091E2148E
S1135AE08F7708C08091E2148F778093E2148091BD
S1135AF0E2148F7B8093E214139A129A119AFF9006
S1135B00EF90DF90CF90BF90AF909F908F907F9059
S1135B106F905F904F9008952CB528602CBD8F5FD7
S1135B209F472C981EBC0DB407FEFDCF9EBD0DB43F
S1135B3007FEFDCF8EBD0DB407FEFDCF2C9A8CB5AC
S1135B40877F8CBD08954F925F926F927F928F9260
S1135B509F92AF92BF92CF92DF92EF92FF924B014E
S1135B605C012091091530910A1540910B15509153
S1135B700C154090891050908A1060908B10709092
S1135B808C10C090FE13D090FF13E0900014F0909E
S1135B9001140E940145A30192010E949546A701A8
S1135BA096010E9499446B017C0120E03AEF4FE793
S1135BB057E40E944C4687FF17C02091FE13309192
S1135BC0FF134091001450910114C701B6010E94C3
S1135BD0FD4487FF10C0C090FE13D090FF13E090E7
S1135BE00014F090011407C0C12C8AEFD82E8FE75F
S1135BF0E82E87E4F82E80928D1490928E14A09251
S1135C008F14B0929014C701B6010E946E45CB0167
S1135C10FF90EF90DF90CF90BF90AF909F908F90C8
S1135C207F906F905F904F9077CF8CB581608CBDE3
S1135C308CB582608CBD8CB584608CBD149880E872
S1135C408EBD0DB407FEFDCF81EE8EBD0DB407FEF3
S1135C50FDCF149A8CB58B7F8CBD8CB58E7F8CBD9B
S1135C6008958CB581608CBD8CB582608CBD8CB57B
S1135C7084608CBD149881E08EBD0DB407FEFDCF09
S1135C808FEF8EBD0DB407FEFDCF2EB560E070E042
S1135C90CB01722F2FEF2EBD0DB407FEFDCF2EB515
S1135CA0622F9695879577956795149A2CB52B7FD7
S1135CB02CBD2CB52E7F2CBD08958CB581608CBD78
S1135CC08CB582608CBD8CB584608CBD149880E8E2
S1135CD08EBD0DB407FEFDCF83E08EBD0DB407FE6F
S1135CE0FDCF149A149881E88EBD0DB407FEFDCF44
