S01400004D5050545F5043425F4D43552E7372656357
S113000038C1000055C1000053C1000051C10000B7
S11300104FC100004DC100004BC1000049C10000A8
S113002047C1000045C1000043C1000041C10000B8
S11300303FC100000C94AF333BC1000039C1000044
S113004037C1000035C1000033C1000031C10000D8
S11300500C9413332DC100000C94773329C1000094
S113006027C1000025C1000023C1000021C10000F8
S11300701FC100001DC100001BC1000019C1000008
S113008017C1000015C1000013C100000763423608
S1130090B79BD8A71A39685618AEBAAB558C1D3C15
S11300A0B7CC5763BD6DEDFD753EF6177231BF00D9
S11300B00000803F08000000BE922449123EABAA13
S11300C0AA2ABECDCCCC4C3E00000080BEABAAAA6E
S11300D0AA3E00000000BF000000803F00000000B6
S11300E000084178D3BB4387D1133D190E3CC3BDEF
S11300F04282AD2B3E68EC8276BED98FE1A93E4C9C
S113010080EFFFBE01C4FF7F3F000000000005A890
S11301104CCDB2D44EB93836A9020C50B991868868
S1130120083CA6AAAA2ABE000000803F696E6600A9
S1130130494E46006E616E004E414E0000407A10FA
S1130140F35A00A0724E18090010A5D4E80000E884
S11301507648170000E40B54020000CA9A3B0000E2
S113016000E1F505000080969800000040420F0071
S11301700000A08601000000102700000000E80332
S1130180000000006400000000000A0000000000FD
S11301900100000000002C76D888DC674F0823DFBC
S11301A0C1DFAE59E1B1B796E5E3E453C63AE6518F
S11301B0997696E8E6C28426EB898C9B62ED407CB6
S11301C06FFCEFBC9C9F40F2BAA56FA5F490055A52
S11301D02AF75C936B6CF9676DC11BFCE0E40D4777
S11301E0FEF520E6B500D0ED902E0300943577059A
S11301F00080841E080000204E0A000000C80C3352
S11302003333330F986E12831141EF8D2114893BE0
S1130210E65516CFFEE6DB18D1844B381BF77C1D60
S1130220901DA4BBE424203284725E228100C9F1B3
S113023024ECA1E53D274E414E494E495459494EBF
S113024046CDCCCC3D0AD7233C17B7D13877CC2B3D
S1130250329595E6241FB14F0A000020410000C8E2
S11302604200401C4620BCBE4CCA1B0E5AAEC59D63
S1130270740011241FBECFEFD0E4DEBFCDBF12E067
S1130280A0E0B1E0E0EEFBE900E00BBF02C00790A4
S11302900D92AA3AB107D9F725E1AAEAB2E001C062
S11302A01D92AC38B207E1F70E94FB300C94EE4D7E
S11302B0A7CECF93DF938091EC1480FD0AC0909178
S11302C0BE028091E514891720F48091BE020E9439
S11302D0AE3F8091421590914315A0914415B09181
S11302E045158093BD149093BE14A093BF14B0938E
S11302F0C0146091BD147091BE148091BF1490918C
S1130300C0140E94C82D8091BF029091C002A8958C
S1130310009749F0EFE9FFE03197F1F700C00000E2
S1130320A8950197F5CFC6E0C15019F10E94B32CEE
S11303308091EC1480FD1DC0D091E514109230150D
S113034010922F1510925B150E94B9418091E5140B
S1130350D81305C08091E5148093BE020AC0FFEF54
S113036020E782E0F15020408040E1F700C0000027
S1130370DBCF6091971070919810809199109091B3
S11303809A10DF91CF910895CF93DF938091EC146D
S113039081FD0AC09091A80A80915C15891720F408
S11303A08091A80A0E94AC401092BD141092BE1411
S11303B01092BF141092C0146091BD147091BE14B9
S11303C08091BF149091C0140E94C82D8091BF02E7
S11303D09091C002A895009749F0EFE9FFE03197AA
S11303E0F1F700C00000A8950197F5CF00990BC064
S11303F00E94583DFFEF20E782E0F150204080400A
S1130400E1F700C00000C7E0C15019F10E94322D8D
S11304108091EC1481FD1DC0D0915C151092EB14F9
S11304201092EA1410925D150E94FF4180915C15B0
S1130430D81305C080915C158093A80A0AC09FEF69
S1130440E0E7F2E09150E040F040E1F700C0000046
S1130450DBCFDF91CF9108952F923F924F925F921D
S11304606F927F928F929F92AF92BF92CF92DF92C0
S1130470EF92FF920F931F93CF93DF9300D01F92BD
S1130480CDB7DEB72DB73EB73B832A838091B7063D
S1130490EDB7FEB722E0829FE019F10911240FB6EF
S11304A0F894FEBF0FBEEDBF8DB79EB701967C01D9
S11304B0D090E514C0905C15409097145090981417
S11304C06090991470909A148091B8029091B90236
S11304D080329E4418F080E69AEE0AC08091B802F9
S11304E09091B9029C01220F331F820F931FC29671
S11304F09093C0028093BF026091C2027091C302C4
S11305008091C4029091C5022091C7023091C80223
S11305104091C9025091CA020E94AD46181684F057
S11305208091C7029091C802A091C902B091CA02F9
S11305308093C2029093C302A093C402B093C502F5
S11305406091C2027091C3028091C4029091C5026D
S11305502091C7023091C8024091C9025091CA0249
S11305608090B4029090B502A090B602B090B70209
S11305700E944846A50194010E94B1460E946E491A
S11305800E944F476983372E8091EC1480FD2DC063
S11305901092301510922F156091561470915714C3
S11305A080915814909159142091B8063091B9064D
S11305B04091BA065091BB060E94524818164CF45A
S11305C06091561470915714809158149091591455
S11305D008C06091B8067091B9068091BA069091EE
S11305E0BB060E94723C0E94AE3F8091EC1481FFD6
S11305F0CBDE6091561470915714809158149091E9
S113060059140E94C82D1398129811988091BF0212
S11306109091C002A895009749F0EFE9FFE0319767
S1130620F1F700C00000A8950197F5CF2090B70618
S11306306091B8067091B9068091BA069091BB0694
S11306400E94C82D57018701222071F00E94602961
S1130650F801819391938F012A948981932D0097B6
S113066099F301970000FBCF2090B7062220D1F028
S11306702A94022D10E0F801EE0FFF1FEE0DFF1D6E
S11306806081718180E090E00E947B47000F111F20
S1130690000F111FF801E355F54F608371838283C6
S11306A09383E4CF60915614709157148091581439
S11306B0909159140E94C82D139A12981198809100
S11306C0BF029091C002A895009749F0EFE9FFE0BE
S11306D03197F1F700C00000A8950197F5CF10916C
S11306E0B7066091B8067091B9068091BA069091E8
S11306F0BB060E94C82D112371F00E946029F501E8
S1130700819391935F0111508981932D009799F3FF
S113071001970000FBCFB090B706BB20D1F0BA948C
S11307200B2D10E0F801EE0FFF1FEE0DFF1D608191
S1130730718180E090E00E947B47000F111F000F41
S1130740111FF801E454F94F60837183828393830A
S1130750E4CF80912B148B7F80932B1480912A14E7
S1130760826080932A1460919714709198148091F8
S1130770991490919A140E94C82D80915C15C81602
S113078039F01092EB141092EA148C2D0E94AC40B4
S11307908091E514D81639F01092301510922F1567
S11307A08D2D0E94AE3FC301B2010E94C82D139843
S11307B0129811988091BF029091C002A895009759
S11307C049F0EFE9FFE03197F1F700C00000A89588
S11307D00197F5CF80912A148E7F80932A148091FB
S11307E031148E7F809331142A813B810FB6F894A3
S11307F03EBF0FBE2DBF0F900F900F90DF91CF9192
S11308001F910F91FF90EF90DF90CF90BF90AF902A
S11308109F908F907F906F905F904F903F902F901C
S113082008954F925F926F927F928F929F92AF92B0
S1130830BF92CF92DF92EF92FF92CF93DF93CDB727
S1130840DEB72C970FB6F894DEBF0FBECDBF698715
S11308507A878B879C8729013A018091C102898319
S1130860812C912C5401C12CD12C7601A981AA236D
S113087009F44AC0139812981198AFE8B1E011979F
S1130880F1F700C000008091B20290E00E94A32919
S1130890C60ED71EE81EF91E80910314882321F08A
S11308A08091B302806207C080919210882329F05E
S11308B08091B30280618093B302139A12981198C5
S11308C08FE891E00197F1F700C000008091B20237
S11308D090E00E94A329860E971EA81EB91E80913F
S11308E00314882321F08091B302806807C08091AB
S11308F09210882329F08091B30280648093B3021C
S1130900998191509983B2CF8091C60281FF23C00F
S11309101398129811988FE891E00197F1F700C0AD
S113092000008091B20290E00E94A329C60ED71E57
S1130930E81EF91E80910314882321F08091EC14A1
S1130940806207C080919210882329F08091EC1472
S113095080618093EC148091641590916515A09149
S11309606615B091671589839A83AB83BC838091A4
S1130970131590911415A0911515B09116158D832A
S11309809E83AF83B887C701B6010E947B47298540
S11309903A854B855C850E940B4929813A814B81BC
S11309A05C810E9449462D813E814F8158850E9479
S11309B00B496093971070939810809399109093BB
S11309C09A10C090E014D090E114E090E214F090FA
S11309D0E3148091DC149091DD14A091DE14B091A5
S11309E0DF1489839A83AB83BC83C501B4010E945D
S11309F07B47A30192010E940B49A70196010E9423
S1130A00494629813A814B815C810E940B4960935C
S1130A104E1270934F128093501290935112609122
S1130A209710709198108091991090919A1020913C
S1130A3008153091091540910A1550910B15C09075
S1130A404E12D0904F12E0905012F09051120E942A
S1130A500B49A70196010E9449466093491270937D
S1130A604A1280934B1290934C122C960FB6F89422
S1130A70DEBF0FBECDBFDF91CF91FF90EF90DF902F
S1130A80CF90BF90AF909F908F907F906F905F902A
S1130A904F9008955F926F927F928F929F92AF9240
S1130AA0BF92CF92DF92EF92FF920F931F93CF9357
S1130AB0DF93C091B706D0E010E000E0912CC12C88
S1130AC0D12C7601CC2381F1C15084E0C89F9001E0
S1130AD01124F901E355F54F5F0160817181828131
S1130AE09381F901E454F94F20813181428153818A
S1130AF00E940B49562E672E782E892E262F372FCB
S1130B00482F592F6D2F712F802F992D0E94AD469C
S1130B1087FFD8CFF501C080D180E280F380D52D46
S1130B20162D072D982CCECFC701B601DF91CF919A
S1130B301F910F91FF90EF90DF90CF90BF90AF90F7
S1130B409F908F907F906F905F900895CF92DF92E7
S1130B50EF92FF92139A1298119A8FE891E00197FD
S1130B60F1F700C0000084E190E00E947429139A18
S1130B70129A119A0E947B472DEC3CEC4CE45DE305
S1130B800E940B492091191430911A1440911B149E
S1130B9050911C140E940B496B017C019B01AC0118
S1130BA060E070E080E897E40E9448469B01AC0155
S1130BB0C701B6010E94B14620910C1430910D1466
S1130BC040910E1450910F14C0908E10D0908F103D
S1130BD0E0909010F09091100E940B49A7019601AB
S1130BE00E940B490E9498482091041430910514E6
S1130BF040910614509107140E940B492EE13FECDA
S1130C004BE55BE30E9449469B01AC0160E070E068
S1130C1080E89FE30E94B14623E333E948E853E4C4
S1130C200E9448466093A7107093A8108093A9105F
S1130C309093AA108091CB1487FD48C08091CB1467
S1130C4080FD44C06091151470911614809117149E
S1130C50909118142091721430917314409174146B
S1130C60509175140E9452481816A4F06091A71070
S1130C707091A8108091A9109091AA1020915214FB
S1130C803091531440915414509155140E94524879
S1130C901816E4F41698179A8091CB148160809307
S1130CA0CB148091CB1482608093CB148091A714D1
S1130CB09091A81490935C1480935B148FE19EE44C
S1130CC00197F1F700C00000169A179AFF90EF9071
S1130CD0DF90CF900C942236CF92DF92EF92FF9266
S1130CE013981298119A8FE891E00197F1F700C0D8
S1130CF0000084E190E00E947429139A129A119AD8
S1130D000E947B472DEC3CEC4CE45DE30E940B49D4
S1130D1020911D1430911E1440911F1450912014E1
S1130D200E940B496B017C019B01AC0160E070E007
S1130D3080E897E40E9448469B01AC01C701B601D4
S1130D400E94B14620919F103091A0104091A110B3
S1130D505091A210C0905E12D0905F12E090601289
S1130D60F09061120E940B49A70196010E940B4961
S1130D700E9498482091521230915312409154127B
S1130D80509155120E940B492EE13FEC4BE55BE379
S1130D900E9449469B01AC0160E070E080E89FE35B
S1130DA00E94B14623E333E948E853E40E944846ED
S1130DB06093151470931614809317149093181459
S1130DC08091CB1487FD48C08091CB1480FD44C032
S1130DD06091151470911614809117149091181441
S1130DE020917214309173144091741450917514BD
S1130DF00E9452481816A4F06091A7107091A81090
S1130E008091A9109091AA102091521430915314FA
S1130E1040915414509155140E9452481816E4F409
S1130E201698179A8091CB1481608093CB1480918B
S1130E30CB1482608093CB148091A7149091A81452
S1130E4090935C1480935B148FE19EE40197F1F717
S1130E5000C00000169A179AFF90EF90DF90CF9091
S1130E600C9422368F929F92AF92BF92CF92DF92D0
S1130E70EF92FF92139A129A11988FE891E00197DA
S1130E80F1F700C0000084E190E00E947429139AF5
S1130E90129A119A8090431290904412A090451295
S1130EA0B0904612C090FB13D090FC13E090FD1359
S1130EB0F090FE130E947B472DEC3CEC4CE45DE388
S1130EC00E940B49A50194010E940B49A7019601B8
S1130ED00E94494660931114709312148093131462
S1130EE0909314146091111470911214809113143E
S1130EF0909114142091BA023091BB024091BC022B
S1130F005091BD020E94AD4687FD14C0609111143A
S1130F107091121480911314909114142091AA02C8
S1130F203091AB024091AC025091AD020E94524804
S1130F3018162CF48091B30284608093B302FF905E
S1130F40EF90DF90CF90BF90AF909F908F900895D7
S1130F502F923F924F925F926F927F928F929F92C5
S1130F60AF92BF92CF92DF92EF92FF920F931F93B3
S1130F70CF93DF93CDB7DEB72D970FB6F894DEBFCE
S1130F800FBECDBF1092B30220915C152A8330911D
S1130F90E5143B838091971490919814A09199142F
S1130FA0B0919A1488879987AA87BB878091C602D3
S1130FB081FF4FC09091B20299836091C10270E0A9
S1130FC080E090E00E947B4720E030E040E85FE36F
S1130FD00E9449466B017C01A9816A2F70E080E080
S1130FE090E00E947B479B01AC01C701B6010E94BF
S1130FF00B499B01AC0160E070E080E89FE30E9434
S1131000B146062F372E8983192F6091B202B09012
S1131010C10270E080E090E00E947B476B017C019C
S11310206B2D70E080E090E00E947B479B01AC0157
S1131030C701B6010E940B499B01AC0160E070E05E
S113104080E89FE30E94B1466C837D838E839F83F7
S113105029C06091B202B091C102B98370E080E00E
S113106090E00E947B476B017C01E9816E2F70E068
S113107080E090E00E947B479B01AC01C701B60170
S11310800E940B499B01AC0160E070E080E89FE3A3
S11310900E94B146062F372E8983192F6C837D83D6
S11310A08E839F838091B8029091B90280329E44CE
S11310B018F080E69AEE0AC08091B8029091B902C5
S11310C09C01220F331F820F931FC2969093C0027C
S11310D08093BF02EED86B017C0156D98091C60281
S11310E080FFB6C08090AE029090AF02A090B00294
S11310F0B090B1026091B70670E061507109072E9B
S1131100000C880B990B0E947D479B01AC01C50123
S1131110B4010E94B1462B013C012091A90A3091EF
S1131120AA0A4091AB0A5091AC0AC701B6010E94C9
S11311300B496B017C016091B70670E06150710945
S1131140072E000C880B990B0E947D47A301920186
S11311500E940B490E948E494B015C016091AE02D2
S11311607091AF028091B0029091B10226EA3FE003
S113117049EC5FE30E94AD46A5019401181644F4BE
S113118060E070E080E090E40E9448469B01AC017E
S1131190C701B6010E94B1466B017C01212C8091EC
S11311A0B706281608F043C0222D30E03D872C876F
S11311B0B901330F880B990B0E947D47A30192015B
S11311C00E940B494B015C0126EA3FE049EC5FE3D6
S11311D00E94AD46AC85BD85AA0FBB1FAA0FBB1FDD
S11311E0BD87AC8718164CF0C501B4010E948E4926
S11311F09B01AC01C701B6010EC0C501B4010E9438
S11312008E499B01AC0160E070E080E090E40E94B4
S11312104846A70196010E940B49EC85FD85E553DC
S1131220FD4F60837183828393832394B8CF80912D
S1131230C60282FF4DC0E091B706B4E0EB9FF00117
S11312401124E953FD4F608171818281938148C0EB
S11312502091A90A3091AA0A4091AB0A5091AC0A94
S1131260B090B706C701B6010E940B496B017C011F
S11312706B2D70E061507109072E000C880B990BDF
S11312800E947D479B01AC01C701B6010E94B14693
S11312904B015C01D12C8091B706D81640F6ED2C99
S11312A0F12C6D2D70E080E090E00E947B47A50159
S11312B094010E940B49F701EE0FFF1FEE0FFF1F71
S11312C0E553FD4F6083718382839383D394E3CF8B
S11312D06091CB027091CC028091CD029091CE02AC
S11312E00E94C82D8091BF029091C002A8950097DA
S11312F049F0EFE9FFE03197F1F700C00000A8954D
S11313000197F5CFA12C8091B706A81608F076C0F6
S11313108091C602CA2CD12C82FF0CC0E091B70682
S1131320F0E0EC19FD09EE0FFF1FEE0FFF1FE9536C
S1131330FD4F07C0F601EE0FFF1FEE0FFF1FE55331
S1131340FD4F60817181828193810E94C82DA8958F
S1131350E090B802F090B902F1E0EF1AF1081C86AF
S1131360FFEFEF16FF0609F4C7C0A8952C852130BE
S113137081F4ECDB882339F08091B302826080939E
S1131380B30281E001C080E0ABE4B6E01197F1F76D
S113139012C0BC85B230A9F49FDC882339F0809157
S11313A0B30282608093B30281E001C080E0EBE489
S11313B0F6E03197F1F700C00000882309F4CAC0B1
S11313C01DC0FC85F33051F44DDD8BE39AE00197A9
S11313D0F1F700C0000094E09C870CC0ABE9BFE0CB
S11313E01197F1F700C00000BC85BF5FBC87BA301D
S11313F008F01C86E1E0EE1AF108B2CF009904C0AF
S11314008091B302816003C08091B3028E7F809388
S1131410B3028091691480688093691480912A14BE
S1131420826080932A1480912B148D7F80932B14D7
S113143088859985AA85BB858093BD149093BE1435
S1131440A093BF14B093C01480915C159A8198172F
S113145039F01092EB141092EA14892F0E94AC40D8
S11314608091E514AB81A81739F0109230151092D1
S11314702F158A2F0E94AE3F6091BD147091BE1447
S11314808091BF149091C0140E94C82D1398129893
S113149011988091BF029091C002A895009749F0DD
S11314A0EFE9FFE03197F1F700C00000A89501973C
S11314B0F5CF80912A148E7F80932A148091311461
S11314C08E7F809331142D960FB6F894DEBF0FBE35
S11314D0CDBFDF91CF911F910F91FF90EF90DF90DF
S11314E0CF90BF90AF909F908F907F906F905F90C0
S11314F04F903F902F9008952C813D814E815F81C4
S1131500602F732D8981912F8CD940919710509120
S113151098106091991070919A10C601880F991FC4
S1131520880F991FFC01E355F54F40835183628373
S113153073834091491250914A1260914B127091F9
S11315404C12FC01E454F94F40835183628373834A
S1131550A394D9CEFC85FF5FFC874CCFCF93C82FD3
S11315608091FA13C11102C08F7B03C0C13039F4DA
S113157080648093FA138091FA138F770AC0C23083
S113158011F48F7B01C080648093FA138091FA1365
S113159080688093FA134091FA136091471282E0B5
S11315A00E943C308FE891E00197F1F700C0000001
S11315B0C093990ECF910895CF93C82F8091FA13B9
S11315C0C11102C08F7E03C0C13039F480618093A1
S11315D0FA138091FA138F7D0AC0C23011F48F7E02
S11315E001C080618093FA138091FA138062809322
S11315F0FA134091FA136091471282E00E943C3042
S11316008FE891E00197F1F700C00000C0939C0EB1
S1131610CF9108959091990E80919A0E981719F090
S113162080919A0E9BDF90919C0E80919B0E98174F
S113163019F080919B0EC0CF0895BC0180919E0E3D
S11316408111FCCF90E0292F30E0FB01E20FF31F62
S11316504081442339F08081F901EA56F04F8083B8
S11316609F5FF1CF8091291486FD06C0F901EA56E7
S1131670F04F8AE080839F5FE92FF0E0EA56F04F55
S1131680108290939E0E81E08093950F8091C0000C
S113169085FFFCCF5A9A85E08A95F1F70000809186
S11316A0C10080648093C1008091960F8093C6002E
S11316B00895AC0190918A10992379F09150292FC3
S11316C030E0F901E056F14F8081FA01E20FF31F97
S11316D02081281789F380E0089581E00895AC0102
S11316E090918A10691778F49150292F30E0F9010C
S11316F0E056F14F8081FA01E20FF31F2081281791
S113170089F380E0089581E008959C0110928A1085
S113171080918A10F901E80FF11D8081E0918A100F
S1131720F0E0882379F080918A10D901A80FB11DC7
S11317308C91E056F14F808390918A109F5F909333
S11317408A10E6CFE056F14F10820895AC01E09183
S11317508A10F0E0E056F14F89E0808390918A107E
S11317609F5F90938A1090E0DA01A90FB11D8C91CC
S1131770E0918A10F0E0882359F08C91E056F14F03
S113178080839F5F20918A102F5F20938A10ECCF73
S1131790E056F14F10820895AC0160938A1090E0F6
S11317A0FA01E90FF11D2081E0918A10F0E0E05682
S11317B0F14F222341F0208320918A102F5F209340
S11317C08A109F5FEDCF10820895E0918A10F0E0B7
S11317D0E056F14F8FE3808380918A108F5F80936E
S11317E08A10E0918A10F0E0E056F14F10820895DB
S11317F0FB012E2F261B421741F0DC013D91CD0148
S11318002081321304C03196F4CF81E0089580E042
S11318100895AC0190E0E92FF0E0DB01AE0FBF1FAB
S11318202C91E40FF51F222319F020839F5FF3CF3F
S113183010820895CF93DF93DC0190E0FD01E90F5E
S1131840F11D8081882311F09F5FF8CF492F842FE9
S1131850891BEB01C80FD11D8881242F30E0FD01C5
S1131860E20FF31F882321F0888180834F5FEFCF3D
S11318701082DF91CF9108950F93FC01CB01BA013F
S113188003E025E0AF010E94074A0F910895CF932A
S1131890DF93CDB7DEB7C656D1090FB6F894DEBFD5
S11318A00FBECDBF8091291487FF17C080919E0E73
S11318B0811113C08091A00E811107C08091291459
S11318C08F7B8093291410929D0E80EA9EE0B5DEF2
S11318D0809129148F77809329148091291487FD8E
S11318E03BC090919D0E8091B706981760F5E091EA
S11318F09D0E84E0E89FF0011124E355F54F4081EB
S1131900518162817381CE010196B6DF10928A10F3
S1131910CE0101961BDFE0919D0E84E0E89FF0016B
S11319201124E454F94F4081518162817381CE01C5
S11319300196A2DFCE01019609DF80919D0E8F5F93
S113194080939D0E04C010929D0E1092A00E809163
S11319502914806880932914CA59DF4F0FB6F8946C
S1131960DEBF0FBECDBFDF91CF9108954F925F923E
S11319706F927F928F929F92AF92BF92EF92FF925B
S11319800F931F93CF93DF93EC018B0180E091E0E1
S1131990BCDECE018EDE882309F464C08091261457
S11319A090912A144AE0B8010E94B14BC801CEDEDE
S11319B040919710509198106091991070919A10DD
S11319C0C8015ADFC801C2DE4091491250914A123F
S11319D060914B1270914C12C8014EDFC801B6DE03
S11319E040919B1050919C1060919D1070919E109D
S11319F0C80142DFC801AADE4091111450911214AB
S1131A006091131470911414C80136DFC8019EDE6E
S1131A104091A7105091A8106091A9107091AA103C
S1131A20C8012ADFC80192DE4091151450911614A2
S1131A306091171470911814C8011EDFC80186DE66
S1131A4080912D1480FD02C00C94D2164091561240
S1131A50509157126091581270915912C8010CDFBD
S1131A600C94CF1686E091E050DECE0122DE88236E
S1131A7049F180918A10FE01E80FF11D80818111E6
S1131A8012C0F8018081813321F480912B1481608C
S1131A9007C0803311F00C94EA1680912B148E7FCA
S1131AA080932B140AC080918A10C80FD11D88819D
S1131AB08F3311F00C94EA1688DE80912B1480FF8A
S1131AC039C00EC58FE091E020DEF0908A10CE017F
S1131AD0F0DD811132C08CE391E017DEF0908A10C2
S1131AE0CE01E7DD811170C083E292E00EDEF0905A
S1131AF08A10CE01DEDD882309F459C36F2D82E6F6
S1131B0091E04ADE6F2DCE01EADD882309F4AAC1F3
S1131B1080918A10C80FD11D888181110C94EA1616
S1131B200E942236882309F41FC180912B148D7FD3
S1131B3080932B148DE091E072C06F2D81E191E0D0
S1131B402BDE6F2DCE01CBDD882341F0809126144E
S1131B5090912A144AE0B8010C94CD166F2D86E1B9
S1131B6091E01ADE6F2DCE01BADD882321F08BE0DF
S1131B7091E0CBDD55C06F2D8BE191E00DDE6F2D33
S1131B80CE01ADDD882349F080E291E0DFDD8BE218
S1131B9091E0DCDD8DE394E142C06F2D88EC91E0AF
S1131BA0FBDD6F2DCE019BDD882309F494CF8BE000
S1131BB091E0CCDD80EA9EE040DD80919E0E8111B3
S1131BC0FCCFF8940C9400006F2D82E491E0E4DDE6
S1131BD06F2DCE0184DD882339F180918A10FE01B6
S1131BE0E80FF11D8081811108C0C8010E94AC4A30
S1131BF06093A9148091A9140CC080918A10C80F15
S1131C00D11D88818F3311F00C94EA16DEDD8091AA
S1131C1092144AE0B80190E00E94B14BC80196DDED
S1131C2080EA9EE00C94EC166F2D87E491E0B4DD1D
S1131C306F2DCE0154DD882339F180918A10FE0185
S1131C40E80FF11D808181110CC0C8010E948C4AEB
S1131C5060935614709357148093581490935914A6
S1131C600AC080918A10C80FD11D88818F3311F06A
S1131C700C94EA16AADD40915614509157146091C1
S1131C805814709159142FC06F2D8FE491E084DDA6
S1131C906F2DCE0124DD882349F180918A10FE0145
S1131CA0E80FF11D808181110CC0C8010E948C4A8B
S1131CB06093B1147093B2148093B3149093B414DA
S1131CC00AC080918A10C80FD11D88818F3311F00A
S1131CD00C94EA167ADD4091B1145091B2146091DB
S1131CE0B3147091B414C801C7DD98CF6F2D87E584
S1131CF091E052DD6F2DCE01F2DC882309F4F4CE9D
S1131D0080918A10FE01E80FF11D808181111DC0B0
S1131D10C8010E94AC4A6136FAEE7F07810591053D
S1131D201CF080E69AEE07C0161617061806190668
S1131D303CF081E090E09093C6148093C5140FC0EA
S1131D407093C6146093C5140AC080918A10C80F9A
S1131D50D11D88818F3311F00C94EA1636DD609121
S1131D60C5147091C6142AC18091261485FDDDCE58
S1131D708091261480FFD9CE80912B1482608093A9
S1131D802B148091B8029091B90280329E4418F0CD
S1131D9080E69AEE0AC08091B8029091B9029C0143
S1131DA0220F331F820F931FC2969093C002809319
S1131DB0BF027090B706E090B802F090B90260914B
S1131DC0B7065090C1026090B202C091BF02D09198
S1131DD0C00270E080E090E00E947B474B015C0110
S1131DE0652D70E080E090E00E947B479B01AC0190
S1131DF0C501B4010E940B494B015C01662D70E0E2
S1131E0080E090E00E947B4728E539E344EB5CE303
S1131E100E940B492EEA37E441E65EE30E944946FC
S1131E209B01AC01C501B4010E940B494B015C014B
S1131E30672D70E080E090E00E947B472B013C011D
S1131E40B70180E090E00E947B479B01AC01C30195
S1131E50B2010E940B499B01AC01C501B4010E946F
S1131E604946FEC16F2D87E691E096DC6F2DCE01C9
S1131E7036DC8823A9F180918A10C80FD11D88818E
S1131E808F3309F0A7C780912914806480932914A3
S1131E9010929D0E9ADC8091B3024AE0B80190E062
S1131EA00E94B14BC80152DC80912D1480FF0CC0FC
S1131EB040915612509157126091581270915912D4
S1131EC0C801DADCC80142DC80EA9EE0B6DB80911E
S1131ED029148F778093291480912A148D7F69C7E0
S1131EE06F2D8CE691E058DC6F2DCE01F8DB882352
S1131EF051F180918A10FE01E80FF11D808181115A
S1131F0016C0C8010E94AC4A6B3F7105810591055A
S1131F1014F08AEF06C0643071058105910524F43C
S1131F2083E08093B7060CC06093B70609C0809124
S1131F308A10C80FD11D88818F3309F04BC745DC47
S1131F408091B70666CE6F2D8CE591E025DC6F2D70
S1131F50CE01C5DB8823C9F180918A10FE01E80F08
S1131F60F11D808181111DC0C8010E94AC4A6136F7
S1131F70EAEE7E07810591051CF080E69AEE07C023
S1131F8016161706180619063CF081E090E09093A7
S1131F90B9028093B8020EC07093B9026093B8027C
S1131FA009C080918A10C80FD11D88818F3309F030
S1131FB011C70BDC6091B8027091B90280E090E027
S1131FC02AE0A8010E94BB4B29CE6F2D83E791E044
S1131FD0E3DB6F2DCE0183DB882359F180918A10D6
S1131FE0FE01E80FF11D8081811117C0C8010E9414
S1131FF0AC4A6F3F71058105910519F014F08FEF1C
S113200006C0161617061806190624F081E08093F8
S1132010B2020CC06093B20209C080918A10C80F4A
S1132020D11D88818F3309F0D5C6CFDB8091B202F0
S1132030F0CD6F2D8AE791E0AFDB6F2DCE014FDB42
S1132040882359F180918A10FE01E80FF11D8081E7
S1132050811117C0C8010E94AC4A6F3F7105810508
S1132060910519F014F08FEF06C01616170618061E
S1132070190624F081E08093C1020CC06093C10270
S113208009C080918A10C80FD11D88818F3309F04F
S1132090A1C69BDB8091C102BCCD6F2D82E491E08F
S11320A07BDB6F2DCE011BDB882319F180918A1015
S11320B0FE01E80FF11D808181110FC0C8010E944B
S11320C0AC4A6F3F71058105910520F089E191E0EB
S11320D03DDB0CC06093C60209C080918A10C80F12
S11320E0D11D88818F3309F075C66FDB8091C602DC
S11320F090CD6F2D83E891E04FDB6F2DCE01EFDAA9
S1132100882331F180918A10FE01E80FF11D80814E
S113211081110CC0C8010E948C4A6093AE02709376
S1132120AF028093B0029093B10209C080918A10EB
S1132130C80FD11D88818F3309F04CC646DB40910E
S1132140AE025091AF026091B0027091B102CBCD5A
S11321506F2D8DE891E020DB6F2DCE01C0DA88234E
S113216031F180918A10FE01E80FF11D8081811107
S11321700CC0C8010E948C4A6093A90A7093AA0AF1
S11321808093AB0A9093AC0A09C080918A10C80F5F
S1132190D11D88818F3309F01DC617DB4091A90A30
S11321A05091AA0A6091AB0A7091AC0A9CCD86E961
S11321B091E0ABDAF0908A10CE017BDA882309F43F
S11321C0C9C06F2D82E691E0E7DA6F2DCE0187DA80
S11321D0882309F461C080918A10C80FD11D8881B9
S11321E08111F8C50E942236811108C080912614FD
S11321F085FD04C08091261480FD04C080912B14B9
S11322008B7F96CC80912B14846080932B148091C7
S1132210B8029091B90280329E4418F080E69AEE9A
S11322200AC08091B8029091B9029C01220F331F19
S1132230820F931FC2969093C0028093BF02609155
S1132240B706C091BF02D091C00270E080E090E078
S11322500E947B4720E030E040E251E40E940B49B9
S113226020E030E048E453E40E9449464B015C011D
S1132270BE0180E090E00E947B4720E030E040E82F
S113228050E40E940B499B01AC01C501B4010E94BA
S113229049460E944A4794CE6F2D8DE991E07CDA3D
S11322A06F2DCE011CDA882331F180918A10FE0152
S11322B0E80FF11D808181110CC0C8010E948C4A75
S11322C06093B8067093B9068093BA069093BB06E0
S11322D009C080918A10C80FD11D88818F3309F0FD
S11322E079C573DA4091B8065091B9066091BA067F
S11322F07091BB06F8CC6F2D8CE591E04DDA6F2D13
S1132300CE01EDD9882331F180918A10FE01E80FC6
S1132310F11D808181110CC0C8010E948C4A609318
S1132320C2027093C3028093C4029093C50209C091
S113233080918A10C80FD11D88818F3309F04AC556
S113234044DA4091C2025091C3026091C402709178
S1132350C502C9CC85EA91E0D8D9F0908A10CE01A3
S1132360A8D9882309F42DC26F2D8CEA91E014DAE0
S11323706F2DCE01B4D98823E9F080918A10C80F5B
S1132380D11D88818F3309F025C540916015509186
S113239061156091621570916315C8016DDAC80109
S11323A0D5D94091D8145091D9146091DA14709110
S11323B0DB1499CC6F2D83EB91E0EED96F2DCE0118
S11323C08ED98823C1F180918A10FE01E80FF11D96
S11323D08081811120C0F801808190E0C0970A9724
S11323E008F0F8C4C8010E94AC4A65307105810543
S11323F0910548F08091EC148E7F8093EC148FEF5C
S11324008093101540C02091EC1421602093EC14AB
S1132410609310150DC080918A10C80FD11D88815A
S11324208F3309F0D7C4D1D9809110158F3F59F15A
S113243080911015EECB6F2D8FEB91E0ADD96F2D00
S1132440CE014DD98823D1F180918A10FE01E80F85
S1132450F11D8081811122C0F801808190E0C09734
S11324600A9708F0B7C4C8010E94AC4A66307105E7
S11324708105910558F08091EC148D7F8093EC14C4
S11324808FEF809312158AEB91E0C9CB2091EC1465
S113249022602093EC14609312150DC080918A1071
S11324A0C80FD11D88818F3309F094C48ED98091CF
S11324B012158F3F41F380911215ABCB6F2D86EC33
S11324C091E06AD96F2DCE010AD9882361F08091F9
S11324D08A10C80FD11D888181117CC40E94583D87
S11324E08BE091E09CCB6F2D8CEC91E055D96F2D56
S11324F0CE01F5D8882359F180918A10FE01E80FA6
S1132500F11D8081811117C0F801808190E0C0978E
S11325100A9708F05FC4C8010E94AC4A6F3F710576
S11325208105910529F020F08FEF809346150CC0AA
S11325306093461509C080918A10C80FD11D888107
S11325408F3309F047C441D98091461562CB6F2D72
S113255083ED91E021D96F2DCE01C1D8882359F1A3
S113256080918A10FE01E80FF11D8081811117C04E
S1132570F801808190E0C0970A9708F02BC4C80145
S11325800E94AC4A6F3F71058105910529F020F046
S11325908FEF809307150CC06093071509C08091D5
S11325A08A10C80FD11D88818F3309F013C40DD947
S11325B0809107152ECB6F2D8AED91E0EDD86F2D0C
S11325C0CE018DD8882309F4FCC0F0908A106F2DB9
S11325D082E491E0E1D86F2DCE0181D8882309F4FB
S11325E071C080918A10FE01E80FF11D8081811174
S11325F04EC080912B14806880932B1444E065EBCB
S113260071E0C801F5D8813071F48091EC148460D4
S11326108093EC148091EC14877F8093EC148FEFFB
S11326208093E5143DC044E061EC71E0C801E0D85A
S1132630813071F48091EC1488608093EC14809163
S1132640EC148B7F8093EC148FEF80935C1528C07F
S113265080912B148F7780932B148091EC1482FF3C
S113266004C08FEF8093E51407C08091EC1483FFBE
S113267003C08FEF80935C158091EC148B7F809363
S1132680EC148091EC14877F8093EC1409C0809142
S11326908A10C80FD11D88818F3309F09BC395D848
S11326A080912B1487FF46CA8091EC1482FF03C0EB
S11326B085EB91E0B4CA8091EC1483FF27C081ECD0
S11326C091E0ADCA6F2D82EE91E066D86F2DCE01F8
S11326D006D88823B9F180918A10FE01E80FF11D14
S11326E08081811120C0C8010E948C4A20912B1442
S11326F027FD0FC080912B1487FF41C08091EC14FB
S113270082FD1BC08091EC1483FD17C08FED91E016
S113271086CA2091EC1422FD04C02091EC1423FFFE
S1132720E9CFDCD3E7CF80918A10C80FD11D88810F
S11327308F3309F04FC349D8DDCF0E94BD1BAB01D5
S1132740BC01D1CA6F2D80EF91E026D86F2DCE0148
S11327500E946F0B8823A9F180918A10FE01E80F73
S1132760F11D8081811118C0C8010E948C4A2091FA
S11327702B1427FD07C080912B1487FD17C088EE0A
S113278091E04DCA2091EC1422FD04C02091EC1478
S113279023FFF1CF6BD4EFCF80918A10C80FD11DE6
S11327A088818F3309F016C310D8E5CF8091EC14DB
S11327B082FD04C08091EC1483FFA8CF0E941B1CEF
S11327C0BECF87EF91E00E94850BF0908A10CE0176
S11327D00E94590B882309F46DC06F2D82E491E0A7
S11327E00E94CC0B6F2DCE010E946F0B882309F43D
S11327F061C080918A10FE01E80FF11D8081811172
S11328002BC0C8010E94AC4A611571058105910570
S113281059F48091CB1480688093CB148091CB14AD
S11328208D7F8093CB1435C061307105810591058E
S113283059F48091CB1480688093CB148091CB148D
S113284082608093CB141AC08091CB148F778093CD
S1132850CB148BE092E0E3C980918A10C80FD11D9C
S113286088818F3309F0B6C20E94E50B8091CB14A6
S113287080FF07C08091CB1487FF03C084E092E0FF
S1132880CEC98091CB1480FD07C08091CB1487FF03
S113289003C08CEF91E0C3C98091CB1480FF07C0C3
S11328A08091CB1487FD03C080E192E0B8C988E130
S11328B092E0B5C981E292E00E94850BF0908A1003
S11328C0CE010E94590B882309F484C06F2D87E23E
S11328D092E00E94CC0B6F2DCE010E946F0B8823D7
S11328E049F0409197145091981460919914709103
S11328F09A14F9C96F2D8DE292E00E94CC0B6F2DD2
S1132900CE010E946F0B882369F180918A10FE0129
S1132910E80FF11D8081811118C0F801808190E0D9
S1132920C0970A9708F056C2C8010E94AC4A6430A6
S113293071058105910520F083E080939A0E02C011
S113294060939A0E80919A0E64C980918A10C80F80
S1132950D11D88818F3309F03DC20E94E50B80911F
S1132960990E57C96F2D84E392E00E94CC0B6F2D12
S1132970CE010E946F0B882369F180918A10FE01B9
S1132980E80FF11D8081811118C0F801808190E069
S1132990C0970A9708F01EC2C8010E94AC4A64306E
S11329A071058105910520F083E080939B0E02C0A0
S11329B060939B0E80919B0E2CC980918A10C80F46
S11329C0D11D88818F3309F005C20E94E50B8091E7
S11329D09C0E1FC98AE392E00E94850BF0908A1036
S11329E0CE010E94590B882309F442C16F2D83E75D
S11329F091E00E94CC0B6F2DCE010E946F0B8823B7
S1132A0009F46FC080918A10FE01E80FF11D8081E6
S1132A10811156C0F801808190E0C0970A9708F0B0
S1132A20D9C1C8010E94AC4A6F3F71058105910567
S1132A3021F01CF08FEF90E007C016161706180659
S1132A4019063CF081E090E090938D1080938C10F7
S1132A5004C070938D1060938C1060918C107091F1
S1132A608D10C091101480E090E00E947B474B01D0
S1132A705C016C2F70E080E090E00E947B479B013A
S1132A80AC01C501B4010E940B499B01AC0160E09B
S1132A9070E080E89FE30E94B1466093A3107093B6
S1132AA0A4108093A5109093A6108091E4148160E3
S1132AB08093E4148091E41482608093E4140AC047
S1132AC080918A10C80FD11D88818F3309F082C18B
S1132AD00E94E50B80918C1090918D104AE0B80112
S1132AE09BC86F2D8FE392E00E94CC0B6F2DCE011B
S1132AF00E946F0B882309F44AC080918A10FE015A
S1132B00E80FF11D8081811135C0F801808190E0CA
S1132B10C0970A9708F05EC1C8010E94AC4A6F3F93
S1132B2071058105910519F014F08FEF06C0161692
S1132B3017061806190624F081E08093481202C093
S1132B40609348126091481270E080E090E00E9427
S1132B507B479B01AC0160E070E080E89FE30E944A
S1132B60B14660935A1270935B1280935C129093F7
S1132B705D120AC080918A10C80FD11D88818F33DD
S1132B8009F028C10E94E50B8091481242C86F2DBC
S1132B9089E492E00E94CC0B6F2DCE010E946F0B52
S1132BA0882309F465C080918A10FE01E80FF11DA5
S1132BB0808181114FC0F801808190E0C0970A970D
S1132BC008F008C1C8010E94AC4A65367105810548
S1132BD0910514F084E606C01616170618061906A1
S1132BE024F081E08093101402C06093101460916B
S1132BF08C1070918D10C091101480E090E00E94B0
S1132C007B474B015C016C2F70E080E090E00E94F8
S1132C107B479B01AC01C501B4010E940B499B0198
S1132C20AC0160E070E080E89FE30E94B1466093ED
S1132C30A3107093A4108093A5109093A610809174
S1132C40E41481608093E4148091E414826080939E
S1132C50E4140AC080918A10C80FD11D88818F3373
S1132C6009F0B8C00E94E50B809110140C94090E71
S1132C7083E592E00E94850BF0908A10CE010E94B9
S1132C80590B882361F16F2D8AE592E00E94CC0BE9
S1132C906F2DCE010E946F0B882349F080918A101A
S1132CA0C80FD11D8881811195C061E013C06F2DBB
S1132CB080E091E00E94CC0B6F2DCE010E946F0B3F
S1132CC0882369F080918A10C80FD11D88818111F1
S1132CD081C060E0C8010E94C6220C940E0E80E6FA
S1132CE092E00E94850BCE010E94590B882309F4BF
S1132CF071C04091A7105091A8106091A9107091D3
S1132D00AA10C8010E943C0CC8010E94A60B409165
S1132D101514509116146091171470911814C80169
S1132D200E943C0CC8010E94A60B80912D1480FFC8
S1132D300EC04091561250915712609158127091E2
S1132D405912C8010E943C0CC8010E94A60BC0E0A5
S1132D50D0E0FE01EE0FFF1FEE0FFF1FE659FA4E03
S1132D604081518162817381C8010E943C0CC80179
S1132D700E94A60B2196C830D10559F78091691598
S1132D804AE0B80190E00E94B14BC8010E94A60B32
S1132D90809168154AE0B80190E00E94B14BC801E7
S1132DA00E94A60B80EA9EE00E941D0B80912A14CB
S1132DB08E7F80932A14DF91CF911F910F91FF9002
S1132DC0EF90BF90AF909F908F907F906F905F90A7
S1132DD04F90089589E191E0DF91CF911F910F9178
S1132DE0FF90EF90BF90AF909F908F907F906F90E7
S1132DF05F904F900C941D0BCF93DF93CDB7DEB74C
S1132E00CC57D1090FB6F894DEBF0FBECDBF809169
S1132E101110833209F056C09091101080919F0ECA
S1132E20981350C0DE01A959BF4F22E030E0AD0134
S1132E30922F8EEF820FF901E05FFF4E60816930BF
S1132E40B1F06081611105C0FA01E80FF11D108233
S1132E5032C08091940F9817A8F580818D932F5FCD
S1132E603F4F2731310521F786E692E01CC0FA0175
S1132E70E80FF11D10822091940F2817E0F09F5F56
S1132E80DE01119620E0BD01E92FF0E0E05FFF4E86
S1132E908081882359F080818D939F5F2F5F253631
S1132EA099F78FE692E00E941D0B0CC0FB01E20F24
S1132EB0F11D108201C01982BE016F5F7F4FCA01EC
S1132EC00E94B60CC458DF4F0FB6F894DEBF0FBE95
S1132ED0CDBFDF91CF9108950C948C4ACF93DF93AB
S1132EE0CDB7DEB7AC970FB6F894DEBF0FBECDBF3B
S1132EF02091261421FFB1C0DC01CB012091EC14F8
S1132F0022FF4CC02091E51421110BC089A79AA778
S1132F10ABA7BCA744E050E06CE771E0CE01899612
S1132F209AC02091E514213059F48DA39EA3AFA338
S1132F30B8A744E050E06CE671E0CE0185968BC002
S1132F402091E514223059F489A39AA3ABA3BCA31E
S1132F5044E050E06CE571E0CE0181967CC02091A4
S1132F60E514233059F48D8F9E8FAF8FB8A344E0BE
S1132F7050E06CE471E0CE014D966DC02091E514F3
S1132F80243009F06AC0898F9A8FAB8FBC8F44E0DC
S1132F9050E06CE371E0CE0149965DC02091EC14E1
S1132FA023FF5BC020915C1521110BC08D8B9E8B80
S1132FB0AF8BB88F44E050E06CE271E0CE014596EF
S1132FC04AC020915C15213059F4898B9A8BAB8BC4
S1132FD0BC8B44E050E060E271E0CE0141963BC01E
S1132FE020915C15223059F48D879E87AF87B88B6A
S1132FF044E050E064E171E0CE010D962CC02091D4
S11330005C15233059F489879A87AB87BC8744E0E1
S113301050E068E071E0CE0109961DC020915C1576
S1133020243059F48D839E83AF83B88744E050E005
S11330306CEF70E0CE0105960EC020915C15253032
S113304061F489839A83AB83BC8344E050E060EFEE
S113305070E0CE0101960E94BE4DAC960FB6F89476
S1133060DEBF0FBECDBFDF91CF910895CF93DF9325
S1133070CDB7DEB7AC970FB6F894DEBF0FBECDBFA9
S11330802091261421FFB1C0DC01CB012091EC1466
S113309022FF4CC02091E51421110BC089A79AA7E7
S11330A0ABA7BCA744E050E060E871E0CE0189968C
S11330B09AC02091E514213059F48DA39EA3AFA3A7
S11330C0B8A744E050E060E771E0CE0185968BC07C
S11330D02091E514223059F489A39AA3ABA3BCA38D
S11330E044E050E060E671E0CE0181967CC020911E
S11330F0E514233059F48D8F9E8FAF8FB8A344E02D
S113310050E060E571E0CE014D966DC02091E5146C
S1133110243009F06AC0898F9A8FAB8FBC8F44E04A
S113312050E060E471E0CE0149965DC02091EC145A
S113313023FF5BC020915C1521110BC08D8B9E8BEE
S1133140AF8BB88F44E050E060E371E0CE01459668
S11331504AC020915C15213059F4898B9A8BAB8B32
S1133160BC8B44E050E064E271E0CE0141963BC088
S113317020915C15223059F48D879E87AF87B88BD8
S113318044E050E068E171E0CE010D962CC020913E
S11331905C15233059F489879A87AB87BC8744E050
S11331A050E06CE071E0CE0109961DC020915C15E1
S11331B0243059F48D839E83AF83B88744E050E074
S11331C060E071E0CE0105960EC020915C152530BB
S11331D061F489839A83AB83BC8344E050E064EF59
S11331E070E0CE0101960E94BE4DAC960FB6F894E5
S11331F0DEBF0FBECDBFDF91CF910895CF92DF9296
S1133200EF92FF920F931F93CF93DF9300D000D0E0
S1133210CDB7DEB77C018A016901613069F4CA0166
S11332205BDE69837A838B839C8344E050E0B7013F
S1133230CE0101960E94BE4D44E050E0B701CE019C
S113324001960E94A64D49815A816B817C81C801F7
S11332500E943C0CB801C6010E941A0C0F900F90FA
S11332600F900F90DF91CF911F910F91FF90EF90EE
S1133270DF90CF900895EF92FF920F931F93CF9317
S1133280DF938C01EA017901613089F4CA010E945B
S1133290AC4A6F3F71058105910509F024F497FF4D
S11332A003C060E001C06FEFC8010E94C74DC801B0
S11332B00E94B64D4AE0BE0190E00E94B14BBE01AF
S11332C0C701DF91CF911F910F91FF90EF900C9464
S11332D01A0CCF92DF92EF92FF920F931F93CF932A
S11332E0DF9300D0CDB7DEB76C018A01790161307C
S11332F0E1F4CA010E94AC4A6115710521E082071C
S113330091052CF08FEF9FEF9A83898307C097FF75
S113331003C01A82198202C07A83698342E050E0B2
S1133320B601CE0101960E94BE4D42E050E0B601C6
S1133330CE0101960E94A64D69817A8180E090E0D9
S11333402AE0A8010E94BB4BB801C7010E941A0CD5
S11333500F900F90DF91CF911F910F91FF90EF90FD
S1133360DF90CF900895CF93DF9300D000D0CDB7F6
S1133370DEB744E050E0BC01CE0101960E94A64DA8
S113338069817A818B819C810F900F900F900F90AF
S1133390DF91CF91089590913214953A09F0C5C008
S11333A0811124C080E891E0DEDF6093641570939E
S11333B0651580936615909367158CE791E0D3DFCC
S11333C06093131570931415809315159093161527
S11333D084E791E0C8DF6093081570930915809322
S11333E00A1590930B1588E791E025C0813069F5A3
S11333F080E791E0B8DF609364157093651580935E
S11334006615909367158CE691E0ADDF6093131514
S113341070931415809315159093161584E691E016
S1133420A2DF609308157093091580930A15909391
S11334300B1588E691E097DF609360157093611532
S1133440809362159093631594C0823021F580E6D1
S113345091E089DF60936415709365158093661518
S1133460909367158CE591E07EDF6093131570935C
S11334701415809315159093161584E591E073DF68
S1133480609308157093091580930A1590930B1592
S113349088E591E0D0CF833021F580E591E063DFCA
S11334A06093641570936515809366159093671502
S11334B08CE491E058DF6093131570931415809396
S11334C015159093161584E491E04DDF609308156B
S11334D07093091580930A1590930B1588E491E075
S11334E0AACF80E491E03FDF609364157093651583
S11334F080936615909367158CE391E034DF6093B5
S1133500131570931415809315159093161584E371
S113351091E029DF609308157093091580930A15CB
S113352090930B1588E391E086CF10926415109266
S11335306515109266151092671580E090E0A0E87A
S1133540BFE38093131590931415A0931515B093AE
S11335501615109208151092091510920A1510925A
S11335600B1510926015109261151092621510924D
S1133570631580912B1487FF18C08091EC1482FF8F
S113358014C010926415109265151092661510926D
S1133590671580E090E0A0E8BFE380931315909353
S11335A01415A0931515B09316150895909132141F
S11335B0953A09F0A9C0811119C080E391E0D3DEE6
S11335C06093E0147093E1148093E2149093E314F5
S11335D08CE291E0C8DE6093DC147093DD14809378
S11335E0DE149093DF1488E291E01AC0813011F563
S11335F084E291E0B8DE6093E0147093E114809368
S1133600E2149093E31480E291E0ADDE6093DC1465
S11336107093DD148093DE149093DF148CE191E0B9
S1133620A2DE6093D8147093D9148093DA14909323
S1133630DB1486C08230C9F488E191E094DE6093A3
S1133640E0147093E1148093E2149093E31484E102
S113365091E089DE6093DC147093DD148093DE14B2
S11336609093DF1480E191E0DBCF8330C9F48CE0E8
S113367091E079DE6093E0147093E1148093E21496
S11336809093E31488E091E06EDE6093DC14709311
S1133690DD148093DE149093DF1484E091E0C0CFB6
S11336A08430C9F480E091E05EDE6093E0147093AE
S11336B0E1148093E2149093E3148CEF90E053DED2
S11336C06093DC147093DD148093DE149093DF1404
S11336D088EF90E0A5CF84EF90E045DE6093E0149E
S11336E07093E1148093E2149093E31480EF90E0DC
S11336F03ADE6093DC147093DD148093DE149093AF
S1133700DF148CEE90E08CCF1092E0141092E11450
S11337101092E2141092E31480E090E0A0E8BFE37A
S11337208093DC149093DD14A093DE14B093DF1423
S11337301092D8141092D9141092DA141092DB1447
S113374080912B1487FF18C08091EC1483FF14C060
S11337501092E0141092E1141092E2141092E31407
S113376080E090E0A0E8BFE38093DC149093DD1444
S1133770A093DE14B093DF1408958091261481FF82
S113378055C08091EC1482FF23C08091E51481110F
S113379003C08CE791E049C08091E514813019F4AD
S11337A08CE691E042C08091E514823019F48CE5F6
S11337B091E03BC08091E514833019F48CE491E0EE
S11337C034C08091E514843089F58CE391E02DC0F8
S11337D08091EC1483FF2AC080915C15811103C091
S11337E08CE291E022C080915C15813019F480E272
S11337F091E01BC080915C15823019F484E191E062
S113380014C080915C15833019F488E091E00DC0F8
S113381080915C15843019F48CEF90E006C080919F
S11338205C15853019F480EF90E09DCD60E070E088
S113383080E89FEB08958091261481FF55C0809104
S1133840EC1482FF23C08091E514811103C080E849
S113385091E049C08091E514813019F480E791E04A
S113386042C08091E514823019F480E691E03BC0B7
S11338708091E514833019F480E591E034C080919F
S1133880E514843089F580E491E02DC08091EC1436
S113389083FF2AC080915C15811103C080E391E00D
S11338A022C080915C15813019F484E291E01BC040
S11338B080915C15823019F488E191E014C0809104
S11338C05C15833019F48CE091E00DC080915C1597
S11338D0843019F480E091E006C080915C15853055
S11338E019F484EF90E03FCD60E070E080E89FEB56
S11338F00895CF93DF9300D0CDB7DEB742E050E018
S1133900BC01CE0101960E94A64D89819A810F9037
S11339100F90DF91CF91089580913214853A19F474
S11339208BE590E0E6CF81EE94E00895CF93DF93AA
S113393000D000D0CDB7DEB744E050E0BC01CE01EA
S113394001960E94A64D69817A818B819C810F909A
S11339500F900F900F90DF91CF910895CF92DF9247
S1133960EF92FF920F931F93CF93DF93CDB7DEB700
S11339706C01EDB6FEB650E08DB79EB7841B950B77
S11339800FB6F8949EBF0FBE8DBF0DB71EB70F5F65
S11339901F4FC8010E94A64DB801C6010E94090C20
S11339A00FB6F894FEBE0FBEEDBEDF91CF911F910E
S11339B00F91FF90EF90DF90CF9008954F925F9218
S11339C06F927F928F929F92AF92BF92CF92DF922B
S11339D0EF92FF920F931F93CF93DF9380E190E0D8
S11339E00E94B64D8093321480913214853A09F0C6
S11339F0DAC245E163ED70E08DE394E1AFDF88E581
S1133A0090E00E94B64D80932D1486E590E00E94CC
S1133A10B64D8093211488EE90E088DF60939B1468
S1133A2070939C1480939D1490939E148AE590E067
S1133A300E94B64D8093301489E590E00E94B64D03
S1133A4080932E148DE090E00E94B64D8093B706CB
S1133A508FE490E04EDF90938D1080938C108EE471
S1133A6090E00E94B64D809310148DE490E00E9483
S1133A70B64D809348128EE891E00E94B64D809333
S1133A80EC148DE891E00E94B64D809310158CE8FB
S1133A9091E00E94B64D809312158BE891E00E944C
S1133AA0B64D809346158AE891E00E94B64D809306
S1133AB0071586E891E01DDF90935F1580935E15EE
S1133AC088E891E016DF9093EE148093ED1484E877
S1133AD091E00E94B64D8093111585E891E00E9413
S1133AE0B64D809331158CE090E00E94B64D8093E2
S1133AF0C60288E090E037DC6093AE027093AF02B8
S1133B008093B0029093B10284E090E02CDC609347
S1133B10A90A7093AA0A8093AB0A9093AC0A81E035
S1133B2090E00E94B64D8093C10280E090E00E9434
S1133B30B64D8093B20282E090E0DBDE9093B9024E
S1133B408093B8028FE090E00E94B64D80939A0E65
S1133B508EE090E00E94B64D80939B0E89E490E045
S1133B6002DC6093FB137093FC138093FD1390931A
S1133B70FE1385E490E0F7DB6093431270934412E4
S1133B80809345129093461281E490E0ECDB6093BD
S1133B9062127093631280936412909365128DE3A2
S1133BA090E0E1DB60933F127093401280934112E6
S1133BB09093421289E390E0D6DB6093FF137093F5
S1133BC00014809301149093021485E390E0CBDBFE
S1133BD06093191470931A1480931B1490931C14FB
S1133BE081E390E0C0DB60930C1470930D14809318
S1133BF00E1490930F148DE290E0B5DB60938E1059
S1133C0070938F10809390109093911089E290E0BC
S1133C10AADB6093041470930514809306149093A4
S1133C20071485E290E09FDB60931D1470931E14CB
S1133C3080931F149093201481E290E094DB6093AE
S1133C409F107093A0108093A1109093A2108DE107
S1133C5090E089DB60935E1270935F128093601230
S1133C609093611289E190E07EDB6093521270932D
S1133C705312809354129093551285E190E073DBB4
S1133C80609308147093091480930A1490930B148E
S1133C9081E190E068DB60939310709394108093BB
S1133CA09510909396108FEC90E05DDB6093A314D5
S1133CB07093A4148093A5149093A6148BEC90E0B5
S1133CC052DB609361147093621480936314909335
S1133CD0641487EC90E047DB60936A1470936B1470
S1133CE080936C1490936D1483EC90E03CDB6093B0
S1133CF076147093771480937814909379148FEBDF
S1133D0090E031DB60939314709394148093951432
S1133D10909396148BEB90E026DB609339147093A8
S1133D203A1480933B1490933C1487EB90E01BDB94
S1133D306093D0147093D1148093D2149093D314BD
S1133D4083EB90E010DB60939F147093A014809336
S1133D50A1149093A2148FEA90E005DB6093BA0259
S1133D607093BB028093BC029093BD028BEA90E0F7
S1133D70FADA6093AA027093AB028093AC02909338
S1133D80AD0287EA90E0EFDA60938E1470938F149B
S1133D90809390149093911483EA90E0E4DA609312
S1133DA0C1147093C2148093C3149093C4148FE904
S1133DB090E0D9DA60937E1470937F14809380141A
S1133DC0909381148BE990E0CEDA6093AC147093F5
S1133DD0AD148093AE149093AF1487E990E0C3DAE6
S1133DE06093B9147093BA148093BB149093BC1469
S1133DF06091B9147091BA148091BB149091BC1461
S1133E002091B9143091BA144091BB145091BC1450
S1133E100E940B496093B9147093BA148093BB1435
S1133E209093BC1485E990E064DD9093C61480936C
S1133E30C51481E990E097DA60938614709387142F
S1133E4080938814909389148DE890E08CDA6093C1
S1133E50351470933614809337149093381489E88A
S1133E6090E081DA6093651470936614809367140C
S1133E709093681485E890E076DA6093B5147093B3
S1133E80B6148093B7149093B81481E890E06BDA79
S1133E9060936E1470936F148093701490937114E4
S1133EA087E590E00E94B64D80932B1480E890E063
S1133EB00E94B64D8093A9148CE790E054DA609385
S1133EC0561470935714809358149093591488E798
S1133ED090E049DA6093B1147093B2148093B314F0
S1133EE09093B41487E790E00E94B64D8093CB146E
S1133EF083E790E038DA60935214709353148093FC
S1133F005414909355148FE690E02DDA6093821444
S1133F107093831480938414909385148BE690E0BB
S1133F2022DA6093721470937314809374149093D0
S1133F30751487E690E017DA6093CC147093CD146F
S1133F408093CE149093CF1483E690E00CDA6093C0
S1133F508A1470938B1480938C1490938D148FE532
S1133F6090E001DA60937A1470937B1480937C144C
S1133F7090937D148DE590E0BCDC9093A81480931D
S1133F80A71482E590E0EFD9609322147093231470
S1133F90809324149093251481E590E00E94B64DFB
S1133FA08093341457C268E772E08DE394E10E9471
S1133FB0090CE1E0E0932D1483E08093211480E068
S1133FC094E2A4EFB0E080939B1490939C14A0938C
S1133FD09D14B0939E1485E08093301494E69093DE
S1133FE02E149AE09093B706C1E0D0E0D0938D10E0
S1133FF0C0938C10E0931014E09348121092EC14C8
S113400094E090931015809312158FEF80934615CA
S1134010809307158AEF90E090935F1580935E1567
S11340209093EE148093ED1484E690E090935F15E2
S113403080935E159093EE148093ED141092C60253
S113404086EA9FE0A9ECBFE38093AE029093AF02AF
S1134050A093B002B093B1028EEA97E4A1E8BFE363
S11340608093A90A9093AA0AA093AB0AB093AC0ACE
S1134070E093C102E093B20285E090E09093B9022C
S11340808093B80210929A0E10929B0E1092FB131A
S11340901092FC131092FD131092FE1380E090E036
S11340A0A0E8BFE38093431290934412A093451277
S11340B0B09346121092621210926312109264121C
S11340C01092651280933F1290934012A093411274
S11340D0B09342121092FF13109200141092011424
S11340E0109202142FEAC22E23E2D22E2EEEE22EDA
S11340F02EE3F22EC0921914D0921A14E0921B14DB
S1134100F0921C1400E010E523E437E400930C144F
S113411010930D1420930E1430930F1447E157EBB2
S113412061ED78E340938E1050938F10609390105C
S113413070939110F9E98F2EF1EA9F2EF8E9AF2ED2
S1134140F9E3BF2E8092041490920514A0920614F1
S1134150B0920714C0921D14D0921E14E0921F1442
S1134160F092201400939F101093A0102093A1109C
S11341703093A21040935E1250935F1260936012CA
S1134180709361124DE557E763E879E34093521267
S113419050935312609354127093551240E050E0C0
S11341A062E274E4409308145093091460930A146F
S11341B070930B148093931090939410A093951084
S11341C0B09396101092A3141092A4141092A514F4
S11341D01092A61440E050E060E272E4409361144F
S11341E050936214609363147093641440E050E03D
S11341F060EA70E440936A1450936B1460936C14F7
S113420070936D1400E010E02CE032E40093761417
S11342101093771420937814309379141092931494
S113422010929414109295141092961400E010E0D9
S113423020EA32E40093391410933A1420933B1487
S113424030933C144093D0145093D1146093D214FF
S11342507093D31400E010E020E732E400939F143D
S11342601093A0142093A1143093A21400E010E63C
S11342702AE636E40093BA021093BB022093BC02F0
S11342803093BD0200E018EC2FE237E40093AA0259
S11342901093AB022093AC023093AD02412C512C0D
S11342A01AE7612E14E4712E40928E1450928F14EA
S11342B0609290147092911400E010E020E231E4D6
S11342C00093C1141093C2142093C3143093C414E4
S11342D0FAE98F2EF9E99F2EA92CFFE3BF2E8092D5
S11342E07E1490927F14A0928014B0928114FAE903
S11342F0CF2EF9E9DF2EF9E1EF2EFFE3FF2EC09276
S1134300AC14D092AD14E092AE14F092AF14C12C60
S1134310F4E2DF2EF4E7EF2EF9E4FF2EC092B91495
S1134320D092BA14E092BB14F092BC14D093C61489
S1134330C093C514409286145092871460928814D6
S1134340709289148093351490933614A093371483
S1134350B09338148092651490926614A0926714F6
S1134360B09268148AE999E9A9E1BFE38093B5148E
S11343709093B614A093B714B093B81400936E142A
S113438010936F14209370143093711410922B14A3
S11343901092A91410925614109257141092581493
S11343A0109259141092B1141092B2141092B314C2
S11343B01092B4141092CB14C12CD12CA0EFEA2E7D
S11343C0A1E4FA2EC0925214D0925314E0925414E1
S11343D0F092551480E090E0A8ECB1E4809382144C
S11343E090938314A0938414B0938514C092721490
S11343F0D0927314E0927414F09275148093CC14D8
S11344009093CD14A093CE14B093CF1400938A1438
S113441010938B1420938C1430938D1440937A143E
S113442050937B1460937C1470937D1480E699E020
S11344309093A8148093A71480E090E0ACE8B2E4D1
S11344408093221490932314A0932414B0932514DE
S1134450E093341460918C1070918D1010911014AD
S113446080E090E00E947B476B017C01612F70E04B
S113447080E090E00E947B479B01AC01C701B6013C
S11344800E940B499B01AC0160E070E080E89FE36F
S11344900E94B1466093A3107093A4108093A5105A
S11344A09093A6106091481270E080E090E00E9422
S11344B07B479B01AC0160E070E080E89FE30E94D1
S11344C0B14660935A1270935B1280935C1290937E
S11344D05D1260919B1470919C1480919D14909135
S11344E09E140E947D4720E034E244E759E40E9490
S11344F0B1469B01AC0160E070E080E89FE30E945C
S1134500B14620E030E04DE353E40E940B49609350
S1134510C7027093C8028093C9029093CA02609143
S11345209B1470919C1480919D1490919E140E94F0
S11345307D4720E034E244E759E40E94B1469B0100
S1134540AC0160E070E080E89FE30E94B14620E0A7
S113455030E040E051E40E940B496093B402709350
S1134560B5028093B6029093B702DF91CF911F9169
S11345700F91FF90EF90DF90CF90BF90AF909F90FE
S11345808F907F906F905F904F9008958F929F923D
S1134590AF92BF92DF92EF92FF920F931F93CF934C
S11345A0DF93CDB7DEB7C557D1090FB6F894DEBF98
S11345B00FBECDBF8C01F62E81E068133DC0F8011B
S11345C0CE0101964C01DC01D12C5C018191893032
S11345D069F0811105C080E892E00E941D0B5DC660
S11345E08D93D39496E0D912F1CFF5CFF401ED0D6C
S11345F0F11D1082C4010E948F4AE82ED39490E0EA
S1134600F801ED0DF11D2081222361F0F4012193C5
S11346104F01D3949F5F913699F780E992E00E940D
S11346201D0B3BC6F501E90FF11D10824AE0B801EC
S113463090E00E94B14B04C0C8010E948F4AE82E4A
S113464060EA72E0C8010E941A0CE1100AC09801E5
S1134650AE014F5F5F4F6F2D80E190E00E943B19E8
S11346601CC6F1E0EF1221C0FF1211C0BE016F5F42
S11346707F4FCE018F599F4F0E94090C44E150E0B7
S113468063ED70E0CE018F599F4F0E94BE4D44E10F
S113469063ED70E0CE018F599F4F60D9BE016F5911
S11346A07F4FC8010E941A0CF8C582E0E8120AC0C4
S11346B09801AE014F5F5F4F6F2D88E590E00E9437
S11346C03B19EBC593E0E9120AC09801AE014F5FB4
S11346D05F4F6F2D86E590E00E943B19DEC5E5E053
S11346E0EE1226C0F1E0FF1213C0CE0101960E9423
S11346F0AC4AA5966CAF7DAF8EAF9FAFA59744E053
S113470050E068EE70E0CE018F599F4F0E94BE4D7D
S113471088EE90E00BD92AE0AE014F5F5F4F0E9414
S1134720BB4BBE016F5F7F4FC8010E941A0CB5C519
S113473086E0E8120AC09801AE014F5F5F4F6F2D0B
S11347408BE590E00E946919A8C597E0E9120AC0B8
S11347509801AE014F5F5F4F6F2D8AE590E00E9494
S11347603B199BC5E8E0EE120AC09801AE014F5F09
S11347705F4F6F2D89E590E00E943B198EC5FAE0EA
S1134780EF120AC09801AE014F5F5F4F6F2D8FE4A7
S113479090E00E94691981C58BE0E8120AC0980173
S11347A0AE014F5F5F4F6F2D8DE490E00E943B1987
S11347B074C59CE0E9120AC09801AE014F5F5F4FD7
S11347C06F2D8EE490E00E943B1967C5E4E1EE1280
S11347D00AC09801AE014F5F5F4F6F2D8EE891E0E4
S11347E00E943B195AC5F5E1EF120AC09801AE01C7
S11347F04F5F5F4F6F2D8DE891E00E943B194DC5CF
S113480086E1E8120AC09801AE014F5F5F4F6F2D39
S11348108CE891E00E943B1940C597E1E9120AC077
S11348209801AE014F5F5F4F6F2D86E891E00E94C3
S1134830691933C5E8E1EE120AC09801AE014F5F71
S11348405F4F6F2D88E891E00E94691926C5F5E550
S1134850EF120AC09801AE014F5F5F4F6F2D84E8DD
S113486091E00E943B1919C586E5E8120AC0980137
S1134870AE014F5F5F4F6F2D85E891E00E943B19B9
S11348800CC599E1E9120AC09801AE014F5F5F4F70
S11348906F2D80E891E00E94FE18FFC4EAE1EE1259
S11348A00AC09801AE014F5F5F4F6F2D8CE791E016
S11348B00E94FE18F2C4FBE1EF120AC09801AE0197
S11348C04F5F5F4F6F2D88E791E00E94FE18E5C4AB
S11348D08CE1E8120AC09801AE014F5F5F4F6F2D63
S11348E084E791E00E94FE18D8C49EE1E9120AC050
S11348F09801AE014F5F5F4F6F2D80E791E00E94FA
S1134900FE18CBC4EFE1EE120AC09801AE014F5F6E
S11349105F4F6F2D8CE691E00E94FE18BEC4F0E25A
S1134920EF120AC09801AE014F5F5F4F6F2D88E60A
S113493091E00E94FE18B1C481E2E8120AC0980115
S1134940AE014F5F5F4F6F2D84E691E00E94FE1829
S1134950A4C493E2E9120AC09801AE014F5F5F4F0D
S11349606F2D80E691E00E94FE1897C4E4E2EE12F7
S11349700AC09801AE014F5F5F4F6F2D8CE591E047
S11349800E94FE188AC4F5E2EF120AC09801AE0133
S11349904F5F5F4F6F2D88E591E00E94FE187DC444
S11349A086E2E8120AC09801AE014F5F5F4F6F2D97
S11349B084E591E00E94FE1870C498E2E9120AC0EE
S11349C09801AE014F5F5F4F6F2D80E591E00E942B
S11349D0FE1863C4E9E2EE120AC09801AE014F5F0B
S11349E05F4F6F2D8CE491E00E94FE1856C4FAE2EA
S11349F0EF120AC09801AE014F5F5F4F6F2D88E43C
S1134A0091E00E94FE1849C48BE2E8120AC09801A2
S1134A10AE014F5F5F4F6F2D84E491E00E94FE185A
S1134A203CC49DE2E9120AC09801AE014F5F5F4F9A
S1134A306F2D80E491E00E94FE182FC4EEE2EE1286
S1134A400AC09801AE014F5F5F4F6F2D8CE391E078
S1134A500E94FE1822C4FFE2EF120AC09801AE01C0
S1134A604F5F5F4F6F2D88E391E00E94FE1815C4DD
S1134A7080E3E8120AC09801AE014F5F5F4F6F2DCB
S1134A8084E391E00E94FE1808C497E3E9120AC087
S1134A909801AE014F5F5F4F6F2D80E391E00E945C
S1134AA0FE18FBC3E8E3EE120AC09801AE014F5FA3
S1134AB05F4F6F2D8CE291E00E94FE18EEC3F9E384
S1134AC0EF120AC09801AE014F5F5F4F6F2D88E26D
S1134AD091E00E94FE18E1C38CE3E8120AC0980139
S1134AE0AE014F5F5F4F6F2D84E291E00E94FE188C
S1134AF0D4C39DE3E9120AC09801AE014F5F5F4F32
S1134B006F2D80E291E00E94FE18C7C3EEE3EE121F
S1134B100AC09801AE014F5F5F4F6F2D8CE191E0A9
S1134B200E94FE18BAC3F1E4EF120AC09801AE0164
S1134B304F5F5F4F6F2D88E191E00E94FE18ADC377
S1134B4082E4E8120AC09801AE014F5F5F4F6F2DF7
S1134B5084E191E00E94FE18A0C393E4E9120AC024
S1134B609801AE014F5F5F4F6F2D80E191E00E948D
S1134B70FE1893C3E6E4EE120AC09801AE014F5F3B
S1134B805F4F6F2D8CE091E00E94FE1886C3F7E41E
S1134B90EF120AC09801AE014F5F5F4F6F2D88E09E
S1134BA091E00E94FE1879C388E4E8120AC09801D3
S1134BB0AE014F5F5F4F6F2D84E091E00E94FE18BD
S1134BC06CC39BE4E9120AC09801AE014F5F5F4FCA
S1134BD06F2D80E091E00E94FE185FC3ECE4EE12BA
S1134BE00AC09801AE014F5F5F4F6F2D8CEF90E0CC
S1134BF00E94FE1852C3FDE4EF120AC09801AE01F0
S1134C004F5F5F4F6F2D88EF90E00E94FE1845C301
S1134C1080E5E8120AC09801AE014F5F5F4F6F2D27
S1134C2084EF90E00E94FE1838C391E5E9120AC0AF
S1134C309801AE014F5F5F4F6F2D80EF90E00E94AF
S1134C40FE182BC3E2E5EE120AC09801AE014F5FD5
S1134C505F4F6F2D8CEE90E00E94FE181EC3F3E5AB
S1134C60EF120AC09801AE014F5F5F4F6F2D8BE8C2
S1134C7091E00E943B1911C384E5E8120AC098012F
S1134C80AE014F5F5F4F6F2D8AE891E00E943B19A0
S1134C9004C39AE5E9120AC09801AE014F5F5F4F61
S1134CA06F2D89E490E00E94FE18F7C2EBE5EE1246
S1134CB00AC09801AE014F5F5F4F6F2D85E490E00D
S1134CC00E94FE18EAC2FFE5EF120AC09801AE0185
S1134CD04F5F5F4F6F2D81E490E00E94FE18DDC2AC
S1134CE080E6E8120AC09801AE014F5F5F4F6F2D56
S1134CF08DE390E00E94FE18D0C291E6E9120AC04A
S1134D009801AE014F5F5F4F6F2D89E390E00E94E1
S1134D10FE18C3C2E4E6EE120AC09801AE014F5F6A
S1134D205F4F6F2D85E390E00E94FE18B6C2F5E652
S1134D30EF120AC09801AE014F5F5F4F6F2D81E300
S1134D4090E00E94FE18A9C286E6E8120AC0980103
S1134D50AE014F5F5F4F6F2D8DE290E00E94FE1811
S1134D609CC297E6E9120AC09801AE014F5F5F4FFB
S1134D706F2D89E290E00E94FE188FC2E9E6EE12E0
S1134D800AC09801AE014F5F5F4F6F2D85E290E03E
S1134D900E94FE1882C2FAE6EF120AC09801AE0120
S1134DA04F5F5F4F6F2D81E290E00E94FE1875C245
S1134DB08BE6E8120AC09801AE014F5F5F4F6F2D7A
S1134DC08DE190E00E94FE1868C29CE6E9120AC0D8
S1134DD09801AE014F5F5F4F6F2D89E190E00E9413
S1134DE0FE185BC2EEE6EE120AC09801AE014F5FF8
S1134DF05F4F6F2D85E190E00E94FE184EC2FFE6E2
S1134E00EF120AC09801AE014F5F5F4F6F2D81E131
S1134E1090E00E94FE1841C283E7E8120AC098019C
S1134E20AE014F5F5F4F6F2D8FE090E00E943B1902
S1134E3034C294E7E9120AC09801AE014F5F5F4F94
S1134E406F2D8EE090E00E943B1927C2EDE7EE1231
S1134E500AC09801AE014F5F5F4F6F2D8FEC90E059
S1134E600E94FE181AC2FEE7EF120AC09801AE01B2
S1134E704F5F5F4F6F2D8BEC90E00E94FE180DC2C8
S1134E808FE7E8120AC09801AE014F5F5F4F6F2DA4
S1134E9087EC90E00E94FE1800C290E8E9120AC074
S1134EA09801AE014F5F5F4F6F2D83EC90E00E943D
S1134EB0FE18F3C1E2E8EE120AC09801AE014F5F9A
S1134EC05F4F6F2D8FEB90E00E94FE18E6C1F3E870
S1134ED0EF120AC09801AE014F5F5F4F6F2D8BEB4D
S1134EE090E00E94FE18D9C184E8E8120AC0980133
S1134EF0AE014F5F5F4F6F2D87EB90E00E94FE186D
S1134F00CCC195E8E9120AC09801AE014F5F5F4F2A
S1134F106F2D83EB90E00E94FE18BFC1E7E8EE120C
S1134F200AC09801AE014F5F5F4F6F2D8FEA90E08A
S1134F300E94FE18B2C1F8E8EF120AC09801AE014F
S1134F404F5F5F4F6F2D8BEA90E00E94FE18A5C162
S1134F508CE8E8120AC09801AE014F5F5F4F6F2DD5
S1134F608DE090E00E943B1998C19DE8E9120AC0C7
S1134F709801AE014F5F5F4F6F2D8CE090E00E946F
S1134F803B198BC1EEE8EE120AC09801AE014F5FE7
S1134F905F4F6F2D88E090E00E94FE187EC1FFE80D
S1134FA0EF120AC09801AE014F5F5F4F6F2D84E08E
S1134FB090E00E94FE1871C180E9E8120AC09801CD
S1134FC0AE014F5F5F4F6F2D82E090E00E94691940
S1134FD064C191E9E9120AC09801AE014F5F5F4FC5
S1134FE06F2D81E090E00E943B1957C1E2E9EE1277
S1134FF00AC09801AE014F5F5F4F6F2D80E090E0D3
S11350000E943B194AC1F6E9EF120AC09801AE01A9
S11350104F5F5F4F6F2D87EA90E00E94FE183DC1FD
S113502087E9E8120AC09801AE014F5F5F4F6F2D08
S113503083EA90E00E94FE1830C198E9E9120AC0A0
S11350409801AE014F5F5F4F6F2D8FE990E00E9492
S1135050FE1823C1E9E9EE120AC09801AE014F5FC0
S11350605F4F6F2D8BE990E00E94FE1816C1FAE99C
S1135070EF120AC09801AE014F5F5F4F6F2D87E9B1
S113508090E00E94FE1809C18BE9E8120AC0980159
S1135090AE014F5F5F4F6F2D85E990E00E94691963
S11350A0FCC090EAE9120AC09801AE014F5F5F4F5D
S11350B06F2D81E990E00E94FE18EFC0E1EAEE1244
S11350C00AC09801AE014F5F5F4F6F2D8DE890E0ED
S11350D00E94FE18E2C0F2EAEF120AC09801AE0183
S11350E04F5F5F4F6F2D89E890E00E94FE18D5C096
S11350F083EAE8120AC09801AE014F5F5F4F6F2D3B
S113510085E890E00E94FE18C8C094EAE9120AC03B
S11351109801AE014F5F5F4F6F2D81E890E00E94D0
S1135120FE18BBC0E5EAEE120AC09801AE014F5F5B
S11351305F4F6F2D87E590E00E943B19AEC0F6EA01
S1135140EF120AC09801AE014F5F5F4F6F2D80E8E8
S113515090E00E943B19A1C087EAE8120AC09801B6
S1135160AE014F5F5F4F6F2D8CE790E00E94FE18F9
S113517094C098EAE9120AC09801AE014F5F5F4FEC
S11351806F2D88E790E00E94FE1887C0EFEAEE12C8
S11351900AC09801AE014F5F5F4F6F2D87E790E023
S11351A00E943B197AC0F0EBEF120AC09801AE01DD
S11351B04F5F5F4F6F2D83E790E00E94FE186DC034
S11351C081EBE8120AC09801AE014F5F5F4F6F2D6B
S11351D08FE690E00E94FE1860C092EBE9120AC0CC
S11351E09801AE014F5F5F4F6F2D8BE690E00E94F8
S11351F0FE1853C0E3EBEE120AC09801AE014F5FF4
S11352005F4F6F2D87E690E00E94FE1846C0F4EBD6
S1135210EF120AC09801AE014F5F5F4F6F2D83E616
S113522090E00E94FE1839C085EBE8120AC098018C
S1135230AE014F5F5F4F6F2D8FE590E00E94FE1827
S11352402CC096EBE9120AC09801AE014F5F5F4F84
S11352506F2D8DE590E00E9469191FC0E7EBEE12F7
S11352600AC09801AE014F5F5F4F6F2D82E590E059
S11352700E94FE1812C0F8EBEF120AC09801AE01AA
S11352804F5F5F4F6F2D81E590E00E943B1905C091
S113529069E171E0C8010E941A0CCB58DF4F0FB6C8
S11352A0F894DEBF0FBECDBFDF91CF911F910F9158
S11352B0FF90EF90DF90BF90AF909F908F900895F4
S11352C085E08A95F1F700002A9A80E18A95F1F742
S11352D02A981EBC0DB407FEFDCF9EB51EBC0DB4AE
S11352E007FEFDCF8EB50895CF92DF92EF92FF9225
S11352F09C01C12CD12C760160E070E0CB0121151A
S11353003105E1F02150310945E04A95F1F70000FB
S11353102A9A40E14A95F1F72A981EBC0DB407FE7B
S1135320FDCF4EB5D42E1EBC0DB407FEFDCF4EB539
S1135330C42E6C0D7D1D8E1D9F1DE1CFFF90EF903F
S1135340DF90CF900895CF92DF92EF92FF929C016D
S1135350C12CD12C7601109292101092031460E0AB
S113536070E0CB01F1E02115310551F121503109F3
S113537045E04A95F1F700002A9A40E14A95F1F791
S11353802A981EBC0DB407FEFDCFEEB5DE2E1EBC62
S11353900DB407FEFDCFEEB5CE2EAD2DD11005C058
S11353A0E11109C0F093031406C0AF3F21F4EF3FAD
S11353B011F4F09392106C0D7D1D8E1D9F1DD3CFA3
S11353C0FF90EF90DF90CF9008954F925F926F928D
S11353D07F928F929F92AF92BF92CF92DF92EF9281
S11353E0FF9280918C1090918D10ADDF139A1298DA
S11353F0119830914D1220911014321710F0109220
S11354004D122091E41420FF15C02091E4142E7F46
S11354102093E414209110142223C1F0215034E08D
S1135420239FF0011124E555FF4E6083718382832D
S11354309383F2CFE0914D1224E0E29FF001112416
S1135440E555FF4E6083718382839383209110140A
S113545060E070E0CB01222381F0215034E0239FEF
S1135460F0011124E555FF4EC080D180E280F38025
S11354706C0D7D1D8E1D9F1DEECF4090A31050908E
S1135480A4106090A5107090A61080906415909060
S11354906515A0906615B0906715C0901315D0904F
S11354A01415E0901515F09016150E947B47A30182
S11354B092010E940B49A50194010E944946A7014B
S11354C096010E940B4960939710709398108093F3
S11354D0991090939A1080910314882349F0809135
S11354E026148460809326148091EC1480621AC080
S11354F080919210882371F08091261484608093A7
S113550026148091EC1480618093EC148091EC1447
S11355108F7D0DC0809126148B7F809326148091FB
S1135520EC148F7D8093EC148091EC148F7E809327
S1135530EC1487EF90E00197F1F700C00000809130
S11355408C1090918D10FFDE1398129A119820916F
S1135550E41421FF15C02091E4142D7F2093E4145A
S1135560209110142223C1F0215034E0239FF00134
S11355701124EA59FD4E6083718382839383F2CFB1
S1135580E0914D1224E0E29FF0011124EA59FD4E0E
S1135590608371838283938380914D128F5F8093A4
S11355A04D122091101460E070E0CB01222381F0B1
S11355B0215034E0239FF0011124EA59FD4EC080AC
S11355C0D180E280F3806C0D7D1D8E1D9F1DEECF7A
S11355D04090A3105090A4106090A5107090A61055
S11355E08090E0149090E114A090E214B090E31441
S11355F0C090DC14D090DD14E090DE14F090DF1441
S11356000E947B47A30192010E940B49A5019401CA
S11356100E944946A70196010E940B4960934E12CD
S113562070934F128093501290935112609197107F
S1135630709198108091991090919A10209108156A
S11356403091091540910A1550910B15C0904E12D6
S1135650D0904F12E0905012F09051120E940B49DA
S1135660A70196010E9449466093491270934A1219
S113567080934B1290934C1280910314882349F029
S1135680809126148860809326148091EC1480689D
S11356901AC080919210882371F08091261488603A
S11356A0809326148091EC1480648093EC14809190
S11356B0EC148F770DC080912614877F8093261475
S11356C08091EC148F778093EC148091EC148F7B91
S11356D08093EC1485ED8A95F1F7000080914812CF
S11356E090E002DE139A129A1198C0905A12D09048
S11356F05B12E0905C12F0905D120E947B47A70160
S113570096010E940B4960939B1070939C108093A8
S11357109D1090939E108FE591E00197F1F700C0E2
S113572000008091481290E0DFDD139A1298119ADC
S113573040905A1250905B1260905C1270905D120F
S11357408090431290904412A0904512B09046125B
S1135750C090FB13D090FC13E090FD13F090FE1367
S11357600E947B47A30192010E940B49A501940169
S11357700E940B49A70196010E94494660931114A7
S113578070931214809313149093141483E291E091
S11357900197F1F700C000008091481290E0A4DD69
S11357A013981298119AC0905A12D0905B12E090FC
S11357B05C12F0905D120E947B47A70196010E9443
S11357C00B492091191430911A1440911B145091D3
S11357D01C140E940B496B017C019B01AC0160E02D
S11357E070E080E897E40E9448469B01AC01C70141
S11357F0B6010E94B14620910C1430910D144091D1
S11358000E1450910F14C0908E10D0908F10E09011
S11358109010F09091100E940B49A70196010E94EC
S11358200B490E949848209104143091051440912A
S11358300614509107140E940B492EE13FEC4BE5EE
S11358405BE30E9449469B01AC0160E070E080E8A4
S11358509FE30E94B14623E333E948E853E40E94FE
S113586048466093A7107093A8108093A910909352
S1135870AA108091481290E037DD1398129811987D
S1135880C0905A12D0905B12E0905C12F0905D12BE
S11358900E947B47A70196010E940B4920911D1489
S11358A030911E1440911F14509120140E940B49F2
S11358B06B017C019B01AC0160E070E080E897E43F
S11358C00E9448469B01AC01C701B6010E94B14643
S11358D020919F103091A0104091A1105091A210DE
S11358E0C0905E12D0905F12E0906012F09061124E
S11358F00E940B49A70196010E940B490E949848F7
S113590020915212309153124091541250915512D9
S11359100E940B492EE13FEC4BE55BE30E944946B4
S11359209B01AC0160E070E080E89FE30E94B14617
S113593023E333E948E853E40E944846609315148E
S1135940709316148093171490931814FF90EF908B
S1135950DF90CF90BF90AF909F908F907F906F908B
S11359605F904F9008954F925F926F927F928F92C3
S11359709F92AF92BF92CF92DF92EF92FF921398D1
S1135980129811988FE891E00197F1F700C0000098
S11359902091101480918C1090918D10AC01249F53
S11359A0C001259F900D1124CEDC4090A31050908F
S11359B0A4106090A5107090A6108090641590902B
S11359C06515A0906615B0906715C0901315D0901A
S11359D01415E0901515F09016150E947B47A3014D
S11359E092010E940B49A50194010E944946A70116
S11359F096010E940B4960939710709398108093BE
S1135A00991090939A1080910314882321F0809127
S1135A10EC14806210C080919210882349F0809128
S1135A20EC1480618093EC148091EC148F7D08C099
S1135A308091EC148F7D8093EC148091EC148F7E14
S1135A408093EC14139A129A119AFF90EF90DF90BE
S1135A50CF90BF90AF909F908F907F906F905F900A
S1135A604F9008954F925F926F927F928F929F9280
S1135A70AF92BF92CF92DF92EF92FF92139A129855
S1135A8011988FE891E00197F1F700C00000209190
S1135A90101480918C1090918D10AC01249FC00142
S1135AA0259F900D11244FDC4090A3105090A4101A
S1135AB06090A5107090A6108090E0149090E1146E
S1135AC0A090E214B090E314C090DC14D090DD14E4
S1135AD0E090DE14F090DF140E947B47A301920152
S1135AE00E940B49A50194010E944946A701960111
S1135AF00E940B4960934E1270934F128093501280
S1135B009093511280910314882321F08091EC1416
S1135B10806810C080919210882349F08091EC1421
S1135B2080648093EC148091EC148F7708C080918A
S1135B30EC148F778093EC148091EC148F7B80931A
S1135B40EC14139A129A119AFF90EF90DF90CF9071
S1135B50BF90AF909F908F907F906F905F904F9089
S1135B6008952CB528602CBD8F5F9F472C981EBCD0
S1135B700DB407FEFDCF9EBD0DB407FEFDCF8EBD57
S1135B800DB407FEFDCF2C9A8CB5877F8CBD08958C
S1135B904F925F926F927F928F929F92AF92BF9239
S1135BA0CF92DF92EF92FF924B015C01209113158B
S1135BB0309114154091151550911615409093107D
S1135BC0509094106090951070909610C0900814A6
S1135BD0D0900914E0900A14F0900B140E94B1467E
S1135BE0A30192010E940B49A70196010E94494614
S1135BF06B017C0120E03AEF4FE757E40E945248E2
S1135C0087FF17C0209108143091091440910A1499
S1135C1050910B14C701B6010E94AD4687FF10C016
S1135C20C0900814D0900914E0900A14F0900B145A
S1135C3007C0C12C8AEFD82E8FE7E82E87E4F82E10
S1135C408092971490929814A0929914B0929A14F6
S1135C50C701B6010E944F47CB01FF90EF90DF9040
S1135C60CF90BF90AF909F908F907F906F905F90F8
S1135C704F9077CF8CB581608CBD8CB582608CBD24
S1135C808CB584608CBD149880E88EBD0DB407FE7D
S1135C90FDCF81EE8EBD0DB407FEFDCF149A8CB5F9
S1135CA08B7F8CBD8CB58E7F8CBD08958CB5816047
S1135CB08CBD8CB582608CBD8CB584608CBD149811
S1135CC081E08EBD0DB407FEFDCF8FEF8EBD0DB408
S1135CD007FEFDCF2EB560E070E0CB01722F2FEFF1
S1135CE02EBD0DB407FEFDCF2EB5622F9695879578
